:10000000F8FF002011040000572C0000572C0000BE
:10001000572C0000572C0000572C0000572C0000D4
:10002000572C0000572C0000572C0000572C0000C4
:10003000572C0000572C0000572C0000572C0000B4
:10004000572C0000572C0000572C0000572C0000A4
:10040000FFFFFFFFFFFFFFFFFFFFFFFFFEFFFFFFFD
:1004100062B604F0E1F8FEE72DE9F04FA1B08246A4
:1004200002AE002017461D46029170620DF144088D
:100430000AE017F8011B0298D0470290002800F04C
:100440008782706A401C7062387808B9706A81E2ED
:100450002528EED10020F06030617061B061F0615C
:10046000306201E040F0010017F8011F2029F9D0A7
:1004700023290DD02B2904D02D2906D030290AD0CC
:100480000CE040F0020080B2EEE740F00400FAE732
:1004900040F00800F7E740F01000F4E72A290DD1FA
:1004A00029680A1D2A600968F162002904D54942B9
:1004B00040F00400F16280B27F1C13E00021F16281
:1004C0000BE0F16A6FF00043994205D001EB810324
:1004D00002EB43013039F1627F1C3A78A2F130011E
:1004E0000A29EED339782E2903D04FF0FF31B162BB
:1004F0001EE017F8011F2A2906D129680A1D2A6063
:100500007F1C0968B16213E00021B1620BE0B16A9F
:100510006FF00043994205D001EB810302EB4301E8
:100520003039B1627F1C3A78A2F130010A29EED34A
:1005300030860FF64820397800F03EFD08B117F8F4
:10054000010B8DF83A009DF83A00682802BF39780F
:100550006829622005D06C2804BF38786C2803D144
:1005600071208DF83A007F1C11A8B0603978B1F184
:1005700025001FD0203802286CD9133800F0958050
:100580000B3800F02B81401E00F0D480401E022862
:1005900060D9001F00F0CE80401F30D0401E00F018
:1005A0008480401E20D0C01E09D0801E7DD0C01E79
:1005B0007BD01BE1F068411CF160252120E1286817
:1005C000011D29600068B26A7060002A02D500F03F
:1005D000FFFC07E0002100F017FD00281ABF71683A
:1005E000401AB06A30610DE12868011D29600021C0
:1005F0000068CDE9000111A870607821EAE09DF85B
:100600003A00622818D0682806D06A280BD06C28D7
:1006100019D0712807D016E02868011D29600068EC
:10062000716A0180EEE02A68101D28601268706A05
:10063000C117C2E90001E5E02868011D29600068D2
:10064000716A0170DEE02868011D29600068716A26
:100650000160D7E02868C01D20F00700286000F185
:1006600008022A60D0E90023CDE90023002B04D53D
:10067000F068421CF2602D220DE0308E820704D516
:10068000F068421CF2602B2205E0C00705D5F06837
:10069000421CF260202200F80820F06811AA80189D
:1006A000706000A800F008FAACE09DF83A006C28F1
:1006B00008BF2A6811D0712808BF2A6802D02A68AA
:1006C0006A280AD1D21D22F007022A60144604F1DA
:1006D00008022A60D4E9002303E0131D2B600023E5
:1006E0001268CDE90023682808BF92B207D06228BB
:1006F00008BFD2B203D0742818BF7A2802D10023D1
:10070000CDE9002396F8300000075FD5DDE900232E
:10071000002B08BF002A59D041F02000782855D17D
:10072000F068302200F80820401C421CF26000F8FB
:1007300008104BE09DF83A0062280CD0682810D0D1
:100740006A281AD06C2823D0712816D074281FD09C
:100750007A280CD01CE02868021D2A6090F900203D
:100760001AE02868021D2A60B0F9002014E0286809
:10077000021D2A60002302680FE02868C01D20F0D7
:100780000700286000F108022A60D0E9002304E095
:100790002868021D2A600268D317CDE90023002BC8
:1007A00004DAF068421CF2602D220DE0308E8207E0
:1007B00004D5F068421CF2602B2205E0C00705D585
:1007C000F068421CF260202200F80820F06811AAAC
:1007D0008018706000A800F0C0F813E0F068411CB9
:1007E000F16029680A1D2A60096809E0F068421C66
:1007F000F260252200F8082021B1F068421CF26066
:1008000000F80810F06AF168401AB169401A3169BD
:10081000401AF169401A7169401A316AA0EB010966
:1008200096F830007F1C400710D420208DF840003F
:10083000002409E0012310AA00A9504600F086FB1D
:10084000002840F08580641C4C45F3DBF4680DF112
:10085000440B0AE01BF8011B0298D04702900028C5
:1008600076D0706A401C7062641E002CF2D1302079
:100870008DF840004FF0000BB46909E0012310AA85
:1008800000A9504600F062FB002861D10BF1010B7A
:10089000A345F3DB3469D6F804B00AE01BF8011B6A
:1008A0000298D0470290002852D0706A401C7062B3
:1008B000641E002CF2D130208DF840004FF0000B68
:1008C000F46909E0012310AA00A9504600F03EFB9C
:1008D00000283DD10BF1010BA345F3DB30697168B2
:1008E000746900EB010B09E01BF8011B0298D0476B
:1008F000029068B3706A401C7062641E002CF3D1D1
:1009000030208DF840004FF0000B346A08E00123DE
:1009100010AA00A9504600F019FBC8B90BF1010B51
:10092000A345F4DB96F8300040077FF58DAD20201D
:100930008DF84000002400E0641C4C45BFF684ADF7
:10094000012310AA00A9504600F000FB0028F3D0B4
:100950004FF0FF3021B0BDE8F08F2DE9FA47064691
:1009600082B035690A466F2A08BF082705D041F0D2
:100970002000782814BF0A271027D6E900013C245C
:1009800080468946642A18BF692A05D1002903DAFE
:10099000D8F1000869EB4909B9F1000F08BFB8F1B7
:1009A000000F0CD1306B50B9082F3BD196F83800AE
:1009B000000737D530203B2485F83B0032E0CDE9F5
:1009C0000089FB17404649463A4600F049FBB846C5
:1009D000A8FB0023DDE90089A8EB02023032A4F174
:1009E000010AD2B254463A2A03DB9DF80830513B43
:1009F0009A180AF8052080465FEA010908BFB8F195
:100A0000000F03D0F06861198842D8D3082F09D1AC
:100A100096F83800000705D5605D302802D0641EC6
:100A200030206055C4F13C00B0616119F160316B58
:100A3000884207DA081A30624FF6EF71308F0840AB
:100A4000308710E000290ED596F8381001F0140117
:100A5000102908D1716B7269891A326A891A081AC9
:100A60000128A8BF306204B0BDE8F0872DE9D0436B
:100A700006460F4614464FF00008DFF8389012E0A3
:100A8000E00707D542464B463046394600F060FB4A
:100A900006460F4664104046494642464B4600F023
:100AA00057FB80468946002CEAD130463946BDE8DE
:100AB000D0830000000024402DE9F34F8BB0D0E933
:100AC0000089006B01AF002802D50B98062106E0D3
:100AD00004BF41F02000672802D10B980121016377
:100AE0000B984168C1F30A5040F2FF72904220D146
:100AF000080302BF0B98006800280AD10B98032155
:100B000081619DF8300061381A2844D30FF280418A
:100B100009E00B98032181619DF8300061381A28A3
:100B200036D30FF264410B98C068032200F0E2FB59
:100B3000EFE0012807DA0B9800F017FC012802DB30
:100B400000230026DCE00B9A526840F2FE3161F38C
:100B50001E520B994A6040F2FE31461A4046494601
:100B60000022002300F022FC38BF89F0004936B291
:100B700047F297507043414990FBF1F636B2C6F107
:100B80000702012A0ADB40464946FFF76FFF27E0CC
:100B90000FF2F031C7E70FF2F431C4E757420024F7
:100BA000374DDFF8E0B09A4612E0F80707D5524615
:100BB0005B462046294600F0CBFA04460D467F10DE
:100BC0005046594652465B4600F0C2FA82468B4672
:100BD000002FEAD14046494622462B4600F0FEFB54
:100BE00080469DF8300040F020058946662D0CBFF8
:100BF00006F10A0006200B99096B4718142FA8BFAD
:100C0000132730208DF804000DF10504DFF878B0CB
:100C1000012F3BDB4046494600F004FD014604F14C
:100C2000080204234FF00A0CB1FBFCFC0CEB8C0413
:100C3000A1EB4401303102F8011D0A21BCFBF1FE99
:100C40000EEB8E04ACEB44043034714602F8014DD7
:100C50005B1EE7D1083F02F10804012FD8DB00F04A
:100C6000F7FC02460B464046494600F0FFFC0022D6
:100C70005B4600F06DFA80468946CBE7A08601000E
:100C80000000F03F0000244084D797410DF105009B
:100C9000201A0DF1050702E0401E761E7F1C3978F0
:100CA0003029F9D0662D02D136B2711C03E0652DD2
:100CB0000CBF012100210B9A126B8B181BB29842BA
:100CC000B8BF03461BB219001AD4814204DAC85DCA
:100CD0003528A8BF392000DA3020CA19521E00E09A
:100CE0005B1E12F80159491E8542F9D0392802D1FC
:100CF000C85D401CC855002902D57F1E5B1C761CB0
:100D000036B29DF830100B9800961BB23A4600F0B0
:100D100003F80DB0BDE8F08F2DE9F04786B0064628
:100D20008A4690461D4600F07EFD406A376B90F87B
:100D30000090012D02DA01250FF258284AF0200018
:100D4000BDF93840662808BF641C13D0672840F0FE
:100D5000878014F1040F72DBBC4270DA96F8380019
:100D6000641C000702D4BD42B8BF2F4624B23F1B0B
:100D700048BF0027F068B16924B2012C21DA302382
:100D80004A1C0B54012F03DA96F83810090702D5D4
:100D900002F80090521CB261E742B8BF7C4224B214
:100DA0006142E7197162AF42B8BF3D462DB2F561AD
:100DB0002A46B3694146181800F09CFA781BB062C5
:100DC000ADE00818A54216DA2A46414600F092FA2C
:100DD000B1696918B161601B7062012F03DA96F87E
:100DE0003800000705D5F06801F80090F069401C54
:100DF000F061B76293E02246414600F07BFAB069A9
:100E000020182D1B012F03DA96F83810090703D597
:100E1000F16800F80190401C2DB2B061AF42B8BF3C
:100E20003D46F3682DB22A4604EB0801C01800F0D5
:100E300061FAB0692818B061781B70626FE0BD423A
:100E400004DA96F83810090758BF2F467F1E48BFAE
:100E50000027BAF1670F0CBF4FF0650A4FF0450A43
:100E6000B169F06818F8013B0B544A1C012F05DAF0
:100E700096F83810090758BFB26115D502F80090EE
:100E8000531CB361012F0FDB6D1E2DB2AF42B8BFF3
:100E90003D462DB22A464146181800F02BFAB0699B
:100EA0002818B061781B7062B069F16800EB010826
:100EB000200008F801AB03D42B2008F8010B03E055
:100EC0002D2108F8011B4442002502AF08E00A2248
:100ED00000A800F0C1FC019807F8010B6D1C009CF4
:100EE00021B20129F3DA022D06DA4AF02000652842
:100EF00004BF302008F8010B4DB9302008F8010B71
:100F000007E06D1E02A8285C303008F8010B012DA7
:100F1000F7DAB069F1684018A8EB0000F06196F8C4
:100F2000380000F0140010280DD17069B16908185C
:100F3000716A0818F1690818B16A0818716B88425B
:100F4000BCBF081A306206B0BDE8F087F8B50446A9
:100F50000D4616461F46002004E0E86A401CE86281
:100F60007F1E002047B116F8011BA868A047A860A3
:100F70000028F2D14FF0FF30F2BD0000686A6C74B7
:100F80007A4C00006E616E004E414E00696E660044
:100F9000494E4600300050F8041B61B150F8042B54
:100FA000D30744BFA9F101039A18002342F8043B78
:100FB000091FFAD1EFE770470278C9B28A421AB125
:100FC0001CBF10F8012FF9E718BF00207047000080
:100FD00000F10103810704D010F8011B89B18107DA
:100FE000FAD10268B2F10131914311F0803F04BFA0
:100FF00050F8042FF6E710F8011B11B110F8011B8F
:10100000FBE7C01A70470000C9B2830706D0521E22
:1010100022D310F8013B9942F7D11FE0083A13D3CD
:1010200002F1040241EA012141EA014150F8043B86
:10103000121F21BF4B40A3F1013C2CEA030C1CF012
:10104000803FF3D0C9B2001F083210F8013B521E96
:1010500028BF91EA030FF8D818BF0120401E70473F
:101060001B4213D1094236D12AB18446B0FBF2F0BB
:1010700002FB10C2704700F0F7BBFCD30022002334
:1010800070470B000200002100207047904271EB76
:10109000030CF6D370B5B1FA81F4B3FA83F52C1BC7
:1010A000A340C4F1200532FA05F63343A2405FF0B5
:1010B0000046E64002E05B085FEA3202841A71EB08
:1010C000030524BF204629467641F4D302000B00D5
:1010D0003000002170BD012ACFD970B5140C20D08A
:1010E000B1FA81F4B2FA82F5C4F120046419B4F1C2
:1010F0002006D6D3B2405FF00044F440002502E061
:1011000052085FEA3303C61A71EB020E24BF304661
:10111000714664416D41F3D302000B0020002900A9
:1011200070BD0C46B1FBF2F102FB11452D0445EAFE
:101130001045B5FBF2F402FB145580B240EA0545B8
:10114000B5FBF2F002FB105240EA044070BD000013
:10115000B0B581EA030C0CF0004C40F2FF7515EAC3
:1011600011541DBF15EA1357AC42AF4239E0E419E0
:1011700023EA455343F48013C90241F0004141EA98
:10118000505EC7021100A7FB020200284FF00000CA
:10119000EEFB01204FF00001E3FB072118BF42F0F6
:1011A0000102401800214941E3FB0E01A4F58064CF
:1011B0000F0302D252004041494154F101046CDD59
:1011C000470872F1004250F1000051EB0451A1F5C3
:1011D00080115CBF41EA0C01B0BD4CEA0551002012
:1011E000B0BD05EA1357AC4214BFAF4241E050EA2C
:1011F000410E1CBF52EA430E02E061460020B0BD22
:1012000024423C441BD15FEA070EF6D0090302BF1B
:1012100001460020AEF1140EB1FA81F7AEEB0704DF
:1012200001FA07FE0C37C7F1200100FA07F7C840A2
:101230004EEA000E23EA455343F48013A2E733F04D
:101240000043B3FA83F704BFB2FA82FE77440B3F40
:10125000E41BB7F1200E2FBF02FA0EF3BB40C7F11B
:10126000200E22FA0EFE38BF43EA0E03BA40641C79
:1012700082E750EA410E14BF52EA430E6FF00001BC
:101280004FF4001717EB430F8ABF194617EB410FB6
:10129000B5E74CEA05510020B0BDD4F10104B4F12A
:1012A00020070FDAC4F12007520828BF42F00102DC
:1012B00010FA07F501FA07F7E1BF2A43E040384387
:1012C000E1400FE0352C98DCC7F1200452EA4002DF
:1012D00020FA07F218BF42F0010231FA07F0A140EC
:1012E0000A43002172F1004250F1000051EB0C0161
:1012F000B0BD000062B38B0708D0521E11F8013B4D
:1013000000F8013B00F024808B07F6D1830740F002
:10131000208000BF103A07D330B4B1E83810103A3B
:10132000A0E83810F9D230BC530724BFB1E8081048
:10133000A0E8081044BF51F8043B40F8043BD20732
:1013400024BF31F8022B20F8022B44BF0B78037026
:101350007047083A07D3B1E80810083A40F8043B50
:1013600040F804CBF7D25307E4E730B4436803F006
:10137000004201211B031B0B436004BF0368002BC9
:1013800008D10DE00368DD0F45EA440444605B00CA
:101390000360491E4468E302F4D523031B0B43603A
:1013A00043681A434260084630BC70474FF4001C43
:1013B0001CEB410F94BF1CEB430F09E041EA030C07
:1013C00050EA4C0C52EA0C0C03D2994208BF9042EE
:1013D000704714BF8B42824270470000F0B540F264
:1013E000FF7581EA030C0CF0004C15EA11541DBF87
:1013F00015EA1357AC42AF42E5E0BC41C1F313011B
:10140000C3F31303801A994143F4801304D2641E7A
:101410004000494180185941C90241EA5051B1FB8D
:10142000F3F603FB1611A2FB0675D7EBC020A9410A
:1014300002D2761E80185941C90241EA5051B1FBCF
:10144000F3FE03FB1E11A2FB0E75D7EBC020A941D2
:1014500003D2AEF1010E80185941890241EA905140
:10146000760546EA8E2EB1FBF3F603FB1611A2FBBE
:101470000675D7EB8020A94102D2761E801859410B
:10148000C90241EA50514EEA060EB1FBF3F603FBE6
:101490001611A2FB0675D7EBC020A94102D2761E19
:1014A00080185941C90241EA5051B1FBF3F703FBDF
:1014B0001711A2FB0735D3EBC020A94167F1000744
:1014C0000CBF004247F0010766F3D5274FEA1E31F3
:1014D000B80814F5806412DDBD0775F1004250EBC9
:1014E0000E5051EB045111F5801F5CBF41EA0C0115
:1014F000F0BD4CF07F6141F0E0410020F0BDBD0740
:101500006D0840EA0E5041F48011D4F10104B4F1A9
:1015100020060ADAC4F120060200E04001FA06F3D0
:10152000E1401843B24015430EE0342C13DCC6F101
:10153000200445EA40056D0820FA06F2154321FA19
:1015400006F0A1400D43002175F1004250F100006A
:1015500051EB0C01F0BD00205FEA0C01F0BDCFB9EA
:1015600092185B41B3FA83F704BFB2FA82F6BF194F
:101570000B3FB7F120062FBF02FA06F3BB40C7F1BD
:10158000200622FA06F638BF3343BA401CB1E419EC
:10159000641E33E77F4231F00041B1FA81F404BFA9
:1015A000B0FA80F6A4190B3CB4F120062FBF00FA64
:1015B00006F1A140C4F1200620FA06F638BF3143F7
:1015C000A0403C1B1AE7AC421ABF05EA1357AF42D2
:1015D00012E050EA41061CBF52EA4306BFE750EA58
:1015E0004107304661461CBF41EA0551F0BD52EA51
:1015F000430C08BFC143F0BD00204FF4001616EBAA
:10160000410F98BF16EB430F08BF16EB410F24BFE5
:10161000C14305E016EB430F0CBF61464CEA055190
:10162000F0BD0000400D40EAC120490080F00D806F
:1016300040F00040490DA1F58061491C05D4D1F16D
:101640001F0154BFC840C01770474FF000007047DB
:10165000010000BF09D0B0FA80F18840C91CC1F573
:101660008461090501EBD0214005704770B44FF04B
:10167000004591EA030F44BF6B4000F001B900BF81
:10168000841A71EB030604D26E40001BB14112199B
:1016900073414FF4001C1CEB410F34BF7CEB43063D
:1016A00084E00C0DA4EB1356362E7DDC012E43DCBA
:1016B00045EAC32343EA525312BFD20292025B08A7
:1016C000240545EAC12141EA5051D2EBC02099419D
:1016D00025D407D1B0FA80F610FA06F164D00020C4
:1016E000203608E0B1FA81F6B140C6F1200220FAB6
:1016F00002F21143B0404FEAF474B4EB465434F0B4
:1017000001064FEA74040AD8D6F50016760D04F0E7
:101710000044F04061FA06F25040F1404840C00AEF
:1017200040EA415021F0004128BF5FEA500550F1E6
:10173000000044EBD12137E045EAC323DB0A45EA48
:10174000C121C90AB6F120050EDD42EA0242120C9F
:10175000C5F1200603FA06F6EB4042EA06056D42A3
:10176000984161F100010DE062FA06F5F240554042
:1017700063FA06FC82EA0C02F3405A406D42904143
:1017800061EB030111F4801F05D1641E620502D0D4
:101790006D004041494121F48011430875F1004337
:1017A00050F1000041EB045170BC70471CEB410F3D
:1017B00015D223F0004352EA43060BD04FEA4C0CFB
:1017C000BCEB410F04D80C0D661E342EB7DDEBE7E1
:1017D000801A994150EA410608BF0021E4E708BF9A
:1017E0001CEB430F28BF6FF00001DDE780B5134805
:1017F00000F0B0F80FF24801016041608160C16003
:101800000161416181610FF23C0242628162C16209
:10181000016341630FF2300282630FF23402C2634C
:101820000164416401BD10B5044800F093F804461A
:10183000206808B9FFF7DAFF204610BD700FFF1FC0
:10184000000000002E00000066616C73650000005F
:10185000747275650000000091FBF2F303FB121136
:10186000C0E90031704700007047000070B44FF0CD
:10187000004591EA030C44BF6B40FFF701BF00BF76
:10188000841A71EB030603D2001BB1411219734194
:101890004FF4001C1CEB410F34BF7CEB430443E0CE
:1018A0000C0DA4EB1356352E50DC45EAC323DB0A9E
:1018B00045EAC121C912B6F120050DDD63FA05F62E
:1018C000EB4086EA0305124218BF45F00105C01837
:1018D00051F100010CD213E062FA06F5F2405540D6
:1018E000F3415A40B340F3405A408018594107D35E
:1018F00049085FEA30005FEA350528BF45F0010579
:1019000001F58011420875F1004250F1000041EBF1
:10191000045170BC4FF4001C1CEB410F38BF7047E2
:101920000020090D090570471CEB410F10D252EA47
:1019300043060BD0BCEB410F05D80C0DAB43661E24
:10194000342EB5DD02E0AB438018594170BC7047BE
:1019500070BC7047704700000000000000000000ED
:101960000000000000000000000000000000000077
:101970000000000000004E6F6E4D61736B61626C81
:101980006500000000486172644661756C74000077
:10199000000000004D656D4D616E6167656D656E9F
:1019A0007400004275734661756C7400000000009D
:1019B000000055736167654661756C740000000036
:1019C0000000000000000000000000000000000017
:1019D0000000000000000000000000000000000007
:1019E00000000000000000000000000000000000F7
:1019F00000000000000000000000000000535643FB
:101A0000616C6C000000000000000000446562751D
:101A1000674D6F6E69746F72000000000000000077
:101A20000000000000000000000050656E64535686
:101A30000000000000000000005379735469636BDC
:101A40000000000000000000444D41300000000094
:101A500000000000000000444D4131000000000083
:101A6000000000000000444D413200000000000072
:101A70000000000000444D41330000000000000061
:101A800000000000444D4134000000000000000050
:101A9000000000444D41350000000000000000003F
:101AA0000000444D4136000000000000000000002E
:101AB00000444D413700000000000000000000001D
:101AC000444D4138000000000000000000000044C8
:101AD0004D41390000000000000000000000444DAE
:101AE00041313000000000000000000000444D4182
:101AF000313100000000000000000000444D413181
:101B00003200000000000000000000444D4131336D
:101B100000000000000000000000444D413134008E
:101B2000000000000000000000444D41313500007D
:101B30000000000000000000444D415F4572726FDC
:101B4000720000000000004D434D00000000000046
:101B50000000000000004654464C00000000000059
:101B60000000000000526561645F436F6C6C697334
:101B7000696F6E004C56445F4C56570000000000E1
:101B80000000004C4C570000000000000000000066
:101B900000005761746368646F6700000000000014
:101BA00000524E470000000000000000000000004E
:101BB00049324330000000000000000000000049EE
:101BC00032433100000000000000000000005350CC
:101BD00049300000000000000000000000535049A0
:101BE00031000000000000000000000053504932A6
:101BF000000000000000000000000043414E305F84
:101C00004F525F4D425F6275660043414E305F4206
:101C100075735F4F666600000043414E305F45724A
:101C2000726F72000000000043414E305F54785FD5
:101C30005761726E696E6743414E305F52785F57ED
:101C400061726E696E6743414E305F57616B655FCD
:101C50005570000000526573657276656435310019
:101C600000000000526573657276656435320000CD
:101C700000000043414E315F4F525F4D425F62753D
:101C8000660043414E315F4275735F4F66660000E8
:101C90000043414E315F4572726F720000000000D8
:101CA00043414E315F54785F5761726E696E67438E
:101CB000414E315F52785F5761726E696E67434182
:101CC0004E315F57616B655F557000000052657360
:101CD00065727665643539000000000052657365F1
:101CE0007276656436300000000000554152543071
:101CF0005F52585F54580000000055415254305F05
:101D000045525200000000000055415254315F52CC
:101D1000585F54580000000055415254315F4552FD
:101D20005200000000000055415254325F52585F8B
:101D300054580000000055415254325F4552520041
:101D4000000000000055415254335F52585F545810
:101D50000000000055415254335F455252000000CC
:101D600000000055415254345F52585F54580000EF
:101D7000000055415254345F4552520000000000AB
:101D80000055415254355F52585F545800000000CE
:101D900055415254355F4552520000000000004149
:101DA00044433000000000000000000000004144F7
:101DB00043310000000000000000000000434D50CF
:101DC000300000000000000000000000434D5031D2
:101DD0000000000000000000000000434D503200F1
:101DE0000000000000000000000046544D300000DC
:101DF00000000000000000000046544D31000000CB
:101E0000000000000000000046544D3200000000B9
:101E100000000000000000434D54000000000000DE
:101E200000000000000052544300000000000000C9
:101E300000000000005265736572766564383300F7
:101E40000000000050495430000000000000000075
:101E50000000005049543100000000000000000064
:101E60000000504954320000000000000000000053
:101E70000050495433000000000000000000000042
:101E800050444230000000000000000000000055F7
:101E900053423000000000000000000000005553D5
:101EA00042444344000000000000000000454E454D
:101EB000545F313538385F54696D6572454E45540D
:101EC0005F5472616E736D69740000454E45545FD6
:101ED00052656365697665000000454E45545F456F
:101EE00072726F720000000000493253300000002F
:101EF00000000000000000005344484300000000C0
:101F000000000000000000444143300000000000D9
:101F100000000000000044414331000000000000C8
:101F20000000000000545349300000000000000091
:101F3000000000004D4347000000000000000000CA
:101F40000000004C5054696D6572000000000000F4
:101F500000005265736572766564313032000000AE
:101F600000504F52544100000000000000000000EB
:101F7000504F52544200000000000000000000508A
:101F80004F52544300000000000000000000504F7A
:101F900052544400000000000000000000504F5266
:101FA0005445000000000000000000005265736509
:101FB00072766564313038000000005265736572D6
:101FC00076656431303900000000526573657276C1
:101FD00065643131300000000052657365727665CA
:101FE00064313131000000005265736572766564BA
:101FF00031313200000000526573657276656431DC
:1020000031330000000052657365727665643131CA
:1020100034000000005265736572766564313135B5
:1020200000000000526573657276656431313600D8
:1020300000000052657365727665643131370000C7
:1020400000005265736572766564313138000000B6
:1020500000526573657276656431313900000000A5
:10206000008003400090034000800B4000900B4034
:1020700000F00F4040F00F4080F00F40C0F00F40E4
:1020800000F10F4066000A1D3200070164000710CE
:102090006E000406780004088200040A8C00040C18
:1020A0009600040EA0000410AA000412B400041448
:1020B000BE000416C8000418D200041ADC00041C78
:1020C000E100041DE600041EEB00041FF4000317EA
:1020D000FA000318130101062C010214000109087B
:1020E0000090044000A0044000B0044000C0044040
:1020F00000D0044000A0064000B0064000C00640EA
:1021000000D0064000A00E4000B00E4034353637F7
:102110009B9A6B6C676D4E4F001828488808F8082A
:102120008848281800000000C000F000FC0000E013
:1021300000E000000000E02020202000000000005F
:102140000000909090F0000000909090F00090902F
:1021500090F000F06080008060F00000806010006F
:10216000F0909090000000000000000000000000CF
:102170000000000000E0E0E0E0FFFFFF03031313B6
:102180001313F3030303131313F3030303735373BF
:1021900083C3630303FFFF8080808080819F8180F1
:1021A0008080809C809F809F809F809F8080818195
:1021B0008F818180808F8888898F818080808080D6
:1021C00080878484848084808484848780848484D9
:1021D00087808780818681808780868180808084D7
:1021E00084848780808080808080808080808080E0
:1021F0008080808087878787FFFFFFC0C0C9C9C9EB
:10220000C9CFC0C0C0CFC9C9C9C0C0C0CCC4C7C174
:10221000CECACEC0FFFF000002040101200FFF1F45
:10222000700FFF1F200FFF1F200FFF1F200FFF1F2A
:102230000D0DFF1FF40CFF1F000000000000000048
:10224000000000000000000000000000000000008E
:1022500000000000000000000821DFF87C260123B8
:102260001360DFF87826002313600A00511ED2B2F3
:10227000002A15D0020604D5DFF864260123136076
:1022800003E0DFF85C2600231360DFF8502601230B
:10229000136000BFDFF84426002313604000E4E72A
:1022A000704700000821DFF8302600231360DFF8B4
:1022B0002C26002313600A00511ED2B2002A15D02A
:1022C000020604D5DFF818260123136003E0DFF8C7
:1022D000102600231360DFF804260123136000BFDB
:1022E000DFF8F825002313604000E4E7704738B5B5
:1022F00004000D00B5F15000C0B2FFF7D3FFE4B207
:10230000200950F01000C0B2FFF7CCFF14F00F000E
:1023100050F00100C0B2FFF7C5FF31BD70B5040039
:1023200000200500EDB2082D17DAB5F15000C0B25B
:10233000FFF7B8FF0120FFF7B5FF1020FFF7B2FF4E
:1023400000200600F6B2802E05DA2000C0B2FFF7AA
:1023500083FF761CF6E76D1CE4E770BD80B20028B1
:1023600009D04FF47A5211000A00511E92B2002A8D
:10237000FAD1401EF2E7704780B5012201210F20FB
:1023800000F0FEFA01220121112000F0F9FA0122E9
:1023900001214F2000F0F4FA01220121102000F069
:1023A000EFFADFF8380501210160DFF83805002178
:1023B00001603220FFF7D2FFDFF82805012101601C
:1023C000AE20FFF76FFF0020FFF76CFF1020FFF734
:1023D00069FF4020FFF766FF8120FFF763FFCF20F2
:1023E000FFF760FFA120FFF75DFFC820FFF75AFF4E
:1023F000A620FFF757FFA820FFF754FF3F20FFF765
:1024000051FFD320FFF74EFF0020FFF74BFFD520F1
:10241000FFF748FF8020FFF745FFD920FFF742FF75
:10242000F120FFF73FFFDA20FFF73CFF1220FFF714
:1024300039FFDB20FFF736FF4020FFF733FF202076
:10244000FFF730FF0220FFF72DFF8D20FFF72AFF57
:102450001420FFF727FFA420FFF724FFA620FFF793
:1024600021FFAF20FFF71EFF0020FFF757FF0021DD
:102470000020FFF73CFF01BD2DE9F84304000D00EB
:10248000160000275FF000085FF000095FFA89F985
:1024900019F8060000282BD05FFA89F919F8060010
:1024A00020380700E4B27F2C02DB002004006D1C02
:1024B0002900C9B22000C0B2FFF719FF00208046F2
:1024C0005FFA88F8B8F1060F0EDA5FFA88F8FFB203
:1024D0000620DFF8141400FB071018F80000FFF7BF
:1024E000BBFE18F10108EBE7A41D19F10109CDE7C6
:1024F000BDE8F1832DE9F84304000D001600002724
:102500005FF000085FF000095FFA89F919F806002A
:10251000002842D05FFA89F919F806002038070030
:10252000E4B2792C02DB002004006D1C2900C9B242
:102530002000C0B2FFF7DBFE002080465FFA88F87B
:10254000B8F1080F0BDAFFB2380150FA88F0DFF863
:10255000A013405CFFF780FE18F10108EEE7691C4C
:10256000C9B22000C0B2FFF7C2FE002080465FFA69
:1025700088F8B8F1080F0CDAFFB2380150FA88F089
:10258000DFF86C134018007AFFF766FE18F10108B7
:10259000EDE7083419F10109B6E7BDE8F1832DE94B
:1025A000F84304000D00160000275FF000085FF0FC
:1025B00001095FFA88F818F80600002800F08D80FD
:1025C0000020070001208146FFB2DFF82003385CBD
:1025D00080281DDBFFB2DFF81403385C5FFA88F84F
:1025E00018F80610884211D1FFB2DFF8000338183E
:1025F00040785FFA88F818EB06014978884205D1DF
:10260000FFB20E2017FB00F0814601E0BF1CDBE7A4
:10261000E4B2772C02DB002004006D1C2900C9B253
:102620002000C0B2FFF763FE1FFA89F9B9F1010F6C
:102630002DD02900C9B22000C0B2FFF758FE0020FB
:102640000700FFB20E2F0BDA1FFA89F9DFF8240317
:1026500019F80000FFF700FE19F101097F1CF0E7EF
:10266000691CC9B22000C0B2FFF741FE002007007C
:10267000FFB20E2F2DDA1FFA89F9DFF8F80219F8E8
:102680000000FFF7E9FD19F101097F1CF0E718F1DF
:1026900001082900C9B22000C0B2FFF728FE0020BF
:1026A0000700FFB2102F04DA0020FFF7D5FD7F1CD2
:1026B000F7E7691CC9B22000C0B2FFF718FE00207E
:1026C0000700FFB2102F04DA0020FFF7C5FD7F1CC2
:1026D000F7E70E3418F102086BE7BDE8F183F0B5B7
:1026E00083B004000D00160000A80021002206C0DF
:1026F000083836B2002E05D52D208DF8000036B2F0
:10270000764202E02B208DF8000036B2DFF8680236
:1027100096FBF0F08DF8010036B2DFF8600296FB10
:10272000F0F00A2190FBF1F201FB12008DF802009B
:1027300036B242F2107096FBF0F00A2190FBF1F2F3
:1027400001FB12008DF8030036B24FF47A7096FB4D
:10275000F0F00A2190FBF1F201FB12008DF8040069
:1027600036B2642096FBF0F00A2190FBF1F201FBF7
:1027700012008DF8050036B20A2096FBF0F00A210F
:1027800090FBF1F201FB12008DF8060036B20A2030
:1027900096FBF0F100FB11608DF807000027FFB2F7
:1027A000082F80F27F80FFB200A83856002816D08C
:1027B00001281CD0022822D0032828D004282ED09B
:1027C000052834D006283AD0072840D0082846D01B
:1027D00009284CD02B285AD02D2850D05FE035A2A4
:1027E0002900C9B22000C0B2FFF746FE57E032A26E
:1027F0002900C9B22000C0B2FFF73EFE4FE02FA271
:102800002900C9B22000C0B2FFF736FE47E02CA273
:102810002900C9B22000C0B2FFF72EFE3FE029A276
:102820002900C9B22000C0B2FFF726FE37E026A279
:102830002900C9B22000C0B2FFF71EFE2FE023A27C
:102840002900C9B22000C0B2FFF716FE27E020A27F
:102850002900C9B22000C0B2FFF70EFE1FE01DA282
:102860002900C9B22000C0B2FFF706FE17E010A28F
:102870002900C9B22000C0B2FFF7FEFD0FE00AA296
:102880002900C9B22000C0B2FFF7F6FD07E007A299
:102890002900C9B22000C0B2FFF7EEFDFFE7A41D7A
:1028A0007F1C7CE7F7BD00002D0000002B0000001E
:1028B000390000003000000031000000320000004C
:1028C0003300000034000000350000003600000036
:1028D00037000000380000004000FE433C00FE438B
:1028E0004400FE433C10FE43C0410000EC4D00009C
:1028F000883000002DE9F84F04000D0016001F007D
:10290000DDF828805FF00009FFB2082097FBF0F1A6
:1029100001FB1071002905D1FFB2082097FBF0F0F0
:10292000834605E0FFB2082097FBF0F0401C834689
:10293000AB46FFB25FFA8BFB5F4519D35946C9B26C
:102940002000C0B2FFF7D3FCA2465FFA8AFAF6B2C3
:10295000B2450AD21FFA89F919F80800FFF77CFC82
:1029600019F101091AF1010AEFE71BF1010BE0E788
:10297000BDE8F18FCC3E000040420F00A086010070
:1029800070B504000D0016004FF480712000C0B235
:1029900000F08AF86DB2002D11D1E4B26011404907
:1029A00051F82000E4B261113D4A52F82110496902
:1029B000012214F01F039A409143416136E0E4B2D2
:1029C0006011374951F82000E4B26111344A52F8DD
:1029D00021104969012214F01F039A4011434161FB
:1029E000F6B2002E11D1E4B260112D4951F8200049
:1029F0000068012114F01F0291408843E4B2611184
:102A0000274A52F82110086010E0E4B2601124490E
:102A100051F820000068012114F01F029140084382
:102A2000E4B261111E4A52F82110086070BD10B561
:102A30000400E4B260111A4951F82000406914F012
:102A40001F01C840C00703D47B21164800F099F845
:102A5000E4B26011124951F82000012114F01F0264
:102A60009140C16010BD10B50400E4B260110C4982
:102A700051F82000406914F01F01C840C00703D579
:102A80008C21084800F07DF8E4B26011044951F847
:102A90002000006914F01F01C84010F0010010BDB3
:102AA000280BFF1FD84E000010B4294A12684FF4BB
:102AB0000073C0B24409A3401A43254B1A60C0B248
:102AC0004211244B53F82220012310F01F04A3408D
:102AD000C2F8A030C0B210F01F02C0B243111D4CAA
:102AE00054F8233043F8221010BC704710B4184A31
:102AF00012684FF40073C0B24409A3401A43144B48
:102B00001A60C0B24211134B53F82220012310F077
:102B10001F04A340C2F8A03031F4E061C0B210F04D
:102B20001F02C0B243110B4C54F8233053F822203B
:102B300012F4E0621143C0B210F01F02C0B24311A0
:102B4000044C54F8233043F8221010BC70470000A6
:102B500038800440980BFF1FDFF800F0410DFF1F85
:102B6000DFF800F0650DFF1FBFF34F8F4648006888
:102B700010F4E0604549084343490860BFF34F8FB4
:102B8000FEE738B504000D00002000F08DF82A00A3
:102B900021003F4800F0C0F8002000F0A2F84FF4F8
:102BA0007A7000F0E6F8F2E738B504000D00210075
:102BB00049B2032000F000FA200032BD10B5002415
:102BC000042000F013FA042000F046FA002841D156
:102BD000002000F069F8042000F03EFA012801D13D
:102BE00001200400002000F07CF82A4800F094F84E
:102BF0004FF4FA7000F0BDF8E4B2012CEBD10420E0
:102C000000F02AFA0028E6D1042000F025FA002876
:102C100006D1002000F065F8642000F0AAF8F3E780
:102C2000042000F019FA012806D1002000F059F81C
:102C3000322000F09EF8F3E7174800F06DF8FFF738
:102C40008BFF642000F095F80020FFF789FFFFF765
:102C50008BFFC0E710BD10B510480468012000F0DC
:102C600023F8012000F03DF8E4B20F200C4900FBEE
:102C70000412E4B221000B4800F04EF84FF47A70D1
:102C800000F077F8EDE700000CED00E00400FA0535
:102C9000804F000030500000B44F000004ED00E011
:102CA0001004FF1FB04D000010B5040064B2042CE6
:102CB00007DA0122012164B21648205CFFF760FEAA
:102CC0000EE0042004002000441E40B2002807D07B
:102CD0000122012164B20F48205CFFF751FEF2E7A8
:102CE00010BD10B5040064B2042C05DA64B20948C2
:102CF000205CFFF79CFE0CE0042004002000441E32
:102D000040B2002805D064B20248205CFFF78FFE75
:102D1000F4E710BDC40BFF1F0EB400B582B003A9C9
:102D20000091024600AB0121034878440A30FDF7C8
:102D300073FB06BC5DF810FBD522000010B5040043
:102D4000002C15D0B4F1807F03D329210F48FFF761
:102D500018FF0F48002101600E4804600E48002152
:102D600001600B480521016009480068C003FBD5DC
:102D700010BD10B504002000441E002804D00748F0
:102D80000068FFF7DBFFF6E710BD0000244E0000EF
:102D900010E000E014E000E018E000E0140FFF1F76
:102DA0002DE9F84304000D0064B2002C08D0022C79
:102DB0002CD018D3042C4FD03BD3052C5FD071E01E
:102DC000DFF81002006850F48060DFF80812086035
:102DD0004FF440716620FFF767FE4FF440716720A3
:102DE000FFF762FE5EE0DFF8EC01006850F400607F
:102DF000DFF8E01108604FF440714320FFF754FE04
:102E00004FF440714420FFF74FFE4BE0DFF8C40160
:102E1000006850F48050DFF8BC1108604FF4407136
:102E20006320FFF741FE4FF440716220FFF73CFE44
:102E300038E0DFF8A001006850F40050DFF894118A
:102E400008604FF440715020FFF72EFE4FF44071A0
:102E50005120FFF729FE25E0DFF87C01006850F4DF
:102E60008060DFF8741108604FF440714E20FFF766
:102E70001BFE4FF440714F20FFF716FE12E0DFF803
:102E80005801006850F40060DFF84C1108604FF4FE
:102E900040718920FFF708FE4FF440718820FFF74A
:102EA00003FEFFE764B2DFF8340150F82400C07875
:102EB00010F0F30064B2DFF8241151F82410C87048
:102EC00064B2DFF8180150F8240064B2DFF80C1186
:102ED00051F824108978817064B2002C02D064B259
:102EE000012C07D1DFF8F80000684FF47A714843ED
:102EF000814606E0DFF8EC0000684FF47A71484341
:102F000081462801B9FBF0F00600B6B2B6F5005FC5
:102F100002DB41F6FF700600B9FBF5F0B6B2B0EB8C
:102F200006100700BFB2202F03DBDC212E48FFF77D
:102F300028FE64B2294850F82400007810F0E00020
:102F40008046B6B2300A10F01F0050EA080064B2A2
:102F5000224951F82410087064B2204850F8240027
:102F6000467064B21D4850F82400807A10F0E000EA
:102F7000804664B2194850F8240017F01F0151EA46
:102F80000801817264B2154850F82400007C50F0AA
:102F9000880064B2114951F82410087464B20F48D3
:102FA00050F82400C07850F00C0064B20B4951F87E
:102FB0002410C870BDE8F18340B2084A52F82020BE
:102FC00012791206F8D540B2044A52F82020D17185
:102FD000704700003480044028800440AC0BFF1F81
:102FE000140FFF1F1C0FFF1F044F000010B504003B
:102FF00064B2082C0DDA0022002164B22148205C62
:10300000FFF7BEFC032164B21E48205CFFF76EFD93
:1030100014E0082004002000441E40B200280DD017
:103020000022002164B21748205CFFF7A9FC0321AD
:1030300064B21448205CFFF759FDECE710BD10B5F1
:10304000040064B20F48205CFFF70DFD002801D199
:10305000002000E0012010BD10B50400200040B2A7
:10306000FFF7EDFF00280AD10A20FFF782FE2000BB
:1030700040B2FFF7E4FF002801D1002000E001206A
:1030800010BD0000C80BFF1F000000000000000082
:103090000000000000000000000000F80000000038
:1030A000000000333000000000100C06100C060079
:1030B000000000000000000040C07840C0784000E0
:1030C000043F04043F040400007088FC0830000042
:1030D000001820FF211E0000F008F000E01800009A
:1030E00000211C031E211E0000F008887000000053
:1030F0001E2123241927211010160E0000000000A5
:103100000000000000000000000000E018040200C1
:10311000000000071820400000020418E000000032
:103120000040201807000000404080F08040400030
:103130000202010F01020200000000F00000000086
:103140000101011F0101010000000000000000005A
:1031500080B07000000000000000000000000000CF
:103160000001010101010101000000000000000058
:1031700000303000000000000000000080601804F3
:10318000006018060100000000E010080810E000D0
:10319000000F102020100F00001010F80000000099
:1031A0000020203F202000000070080808887000E0
:1031B0000030282422213000003008888848300060
:1031C0000018202020110E000000C02010F8000080
:1031D00000070424243F240000F808888808080019
:1031E0000019212020110E0000E01088881800002E
:1031F000000F112020110E0000380808C838080000
:103200000000003F0000000000708808088870007F
:10321000001C222121221C0000E010080810E00000
:103220000000312222110F00000000C0C000000089
:1032300000000030300000000000008000000000AE
:1032400000008060000000000000804020100800A6
:10325000000102040810200040404040404040006F
:10326000040404040404040000081020408000004A
:103270000020100804020100007048080808F0004F
:103280000000003036010000C030C828E810E0001F
:103290000718272423140B000000C038E0000000AA
:1032A000203C23020227382008F888888870000014
:1032B000203F202020110E00C030080808083800E8
:1032C000071820202010080008F808080810E0005F
:1032D000203F202020100F0008F88888E808100000
:1032E000203F20202320180008F88888E8081000D4
:1032F000203F200003000000C0300808083800000C
:1033000007182020221E020008F808000008F8080C
:10331000203F210101213F20000808F80808000093
:103320000020203F2020000000000808F8080800C6
:10333000C08080807F00000008F888C0281808003E
:10334000203F20012638200008F808000000000077
:10335000203F20202020300008F8F800F8F808006E
:10336000203F003F003F200008F830C00008F80868
:10337000203F200007183F00E01008080810E00078
:103380000F10202020100F0008F808080808F0008F
:10339000203F210101010000E01008080810E000B2
:1033A0000F18242438504F0008F888888888700047
:1033B000203F2000030C30200070880808083800E7
:1033C0000038202121221C00180808F808081800DD
:1033D0000000203F2000000008F808000008F8085E
:1033E000001F202020201F000878880000C838080F
:1033F000000007380E010000F80800F80008F80087
:10340000033C0700073C0300081868808068180820
:1034100020302C03032C30200838C800C83808009E
:103420000000203F2000000010080808C8380800ED
:103430002038262120201800000000FE0202020091
:103440000000007F40404000000C30C00000000041
:10345000000000010638C00000020202FE00000069
:10346000004040407F00000000000402020204000F
:10347000000000000000000000000000000000004C
:103480008080808080808080000202040000000034
:10349000000000000000000000008080808000002C
:1034A0000019242222223F2008F80080800000001A
:1034B000003F112020110E000000008080800000DD
:1034C000000E112020201100000000808088F800EC
:1034D000000E112020103F2000008080808000001E
:1034E000001F222222221300008080F08888881882
:1034F0000020203F2020000000008080808080008D
:10350000006B94949493600008F800808080000021
:10351000203F210000203F200080989800000000FC
:103520000020203F2020000000000080989800002C
:1035300000C08080807F000008F80000808080004C
:10354000203F24022D302000000808F80000000071
:103550000020203F2020000080808080808080002C
:10356000203F20003F20003F8080008080800000BE
:10357000203F210000203F2000008080808000004C
:10358000001F202020201F0080800080800000007D
:1035900080FFA12020110E000000008080808000AC
:1035A000000E112020A0FF8080808000808080009D
:1035B00020203F21200001000000808080808000CA
:1035C0000033242424241900008080E0808000003F
:1035D0000000001F2020000080800000008080008C
:1035E000001F202020103F208080800000808080ED
:1035F00000010E300806010080800080008080807D
:103600000F300C030C300F000080800080808000A1
:103610000020312E0E3120008080800000808080CC
:1036200080818E701806010000808080808080007C
:103630000021302C2221300000000000807C02029A
:1036400000000000003F404000000000FF000000BC
:1036500000000000FF0000000002027C800000006B
:103660000040403F00000000000601010202040487
:10367000000000000000000038B504000D0064B236
:10368000002C06D0022C69D04CD3032C00F0828091
:10369000C7E0DFF86004006850F08070DFF8541471
:1036A00008606DB2002D0BD0022D15D00ED3042D65
:1036B0001ED017D3062D27D020D3072D2AD02FE0D8
:1036C0004FF480614120FFF7EFF92AE04FF4407199
:1036D0000420FFF7E9F924E04FF440710520FFF7DB
:1036E000E3F91EE04FF440710620FFF7DDF918E022
:1036F0004FF440710720FFF7D7F912E04FF48061D3
:103700006520FFF7D1F90CE04FF480616620FFF7E8
:10371000CBF906E04FF480616720FFF7C5F900E0C0
:103720007FE07EE0DFF8CC03006850F00070DFF847
:10373000C41308606DB2002D02D0012D06D00BE03D
:103740004FF440710C20FFF7AFF906E04FF44071E1
:103750000D20FFF7A9F900E063E062E0DFF89803CD
:10376000006850F08070DFF8901308606DB2002D93
:1037700002D0012D06D00BE04FF440710A20FFF774
:1037800093F906E04FF440710B20FFF78DF900E04C
:1037900047E046E0DFF86003006850F00070DFF8B3
:1037A000581308606DB2002D0BD0022D15D00ED32A
:1037B000042D1ED017D3062D27D020D3072D2AD0B5
:1037C0002EE04FF4C0618520FFF76EF928E04FF43A
:1037D000C0618620FFF768F922E04FF4C0618720BE
:1037E000FFF762F91CE04FF4C0618820FFF75CF935
:1037F00016E04FF440714820FFF756F910E04FF4FF
:10380000C0618A20FFF750F90AE04FF4C0618B20B5
:10381000FFF74AF904E04FF4C0618C20FFF744F948
:10382000FFE731BD2DE9F84F04000D0016001F0021
:1038300064B2002C11D064B2012C02D064B2022C0C
:1038400002D16DB2022D08DB64B2032C05D040F228
:103850008511DFF8A802FFF794F9290049B220008A
:1038600040B2FFF709FFDFF8980200684FF47A7161
:10387000484380465FEA1840B0FBF6F081460020DE
:1038800082461FFA89F959FA0AF0012802DB1AF177
:10389000010AF6E75FFA8AFABAF1080F05DB4FF47E
:1038A000D071DFF85802FFF76CF938FA0AF0B0FB74
:1038B000F6F0814664B2DFF84C021FFA89F940F84D
:1038C000249064B2002C05D0022C1BD00ED3032C04
:1038D00024D02FE01FFA89F919F1010000FB07F04D
:1038E0004FF47A71B0FBF1F0834623E01FFA89F9B7
:1038F00019F1010000FB07F04FF47A71B0FBF1F011
:10390000834617E01FFA89F919F1010000FB07F05F
:103910004FF47A71B0FBF1F083460BE01FFA89F99E
:1039200019F1010000FB07F042F21071B0FBF1F059
:103930008346FFE76DB264B2DFF8CC0150F8240093
:1039400010EBC5006DB264B2DFF8BC1151F8241061
:1039500011EBC501C96831F00401C1606DB264B2F8
:10396000DFF8A40150F8240010EBC5002821C16045
:1039700064B2DFF8940150F824005FFA8AFA1AF072
:10398000070151F00801016064B2DFF87C0150F8D2
:1039900024001FFA89F9C0F8089064B2DFF86801C2
:1039A00050F824000021C1646DB264B2DFF8580100
:1039B00050F8240010EBC5001FFA8BFBC0F810B0C4
:1039C00064B2DFF8440150F8240000214160BDE8F2
:1039D000F18F2DE9F04104000D0016005FF00008A2
:1039E00064B2002C11D064B2012C02D064B2022C5B
:1039F00002D16DB2022D08DB64B2032C05D04FF466
:103A0000F371DFF8F800FFF7BCF864B2002C05D0C2
:103A1000022C17D00CD3032C1ED028E0B6F57A7FE9
:103A200005D94FF4F671DFF8D400FFF7AAF81EE0CD
:103A3000B6F57A7F05D94FF4F871DFF8C000FFF7CB
:103A4000A0F814E0B6F57A7F05D94FF4FA71DFF8E3
:103A5000AC00FFF796F80AE042F21170864205D3F7
:103A600040F2F911DFF89400FFF78BF8FFE764B23A
:103A7000DFF8900050F82400804664B2002C05D096
:103A8000022C17D00CD3032C1ED027E018F1010014
:103A900000FB06F04FF47A71B0FBF1F007001DE077
:103AA00018F1010000FB06F04FF47A71B0FBF1F061
:103AB000070013E018F1010000FB06F04FF47A71E3
:103AC000B0FBF1F0070009E018F1010000FB06F07F
:103AD00042F21071B0FBF1F00700FFE76DB264B283
:103AE000DFF8240050F8240010EBC5000761BDE8A2
:103AF000F08100003C80044030800440AC4E000067
:103B00001C0FFF1F000FFF1F180BFF1FDFF800F037
:103B1000B10EFF1F40B2DFF8981331F8201040B209
:103B20000128C0F26B8140B2162880F26781DFF86D
:103B300084230023137089B23D2904DADFF874234B
:103B40000023537078E089B2792904DADFF864231E
:103B50000123537070E089B2B52904DADFF85423E9
:103B60000223537068E089B2F12904DADFF84423B4
:103B70000323537060E089B2B1F5967F04DCDFF86F
:103B800034230423537057E089B2B1F5B47F04DCC9
:103B9000DFF82023052353704EE089B2B1F5D27FC0
:103BA00004DCDFF810230623537045E089B2B1F539
:103BB000F07F04DCDFF8FC22072353703CE089B27D
:103BC000B1F5077F04DCDFF8EC220823537033E003
:103BD00089B2B1F5167F04DCDFF8D82209235370CF
:103BE0002AE089B2B1F5257F03DCB24A0A2353707B
:103BF00022E089B2B1F5347F03DCAE4A0B23537067
:103C00001AE089B2B1F5437F03DCAA4A0C23537052
:103C100012E089B2B1F5527F03DCA64A0D2353703E
:103C20000AE089B2B1F5617F03DCA24A0E2353702A
:103C300002E0A04A0F23537089B21A2903DA9D4A81
:103C40000023937069E089B2332903DA994A01238A
:103C5000937062E089B24C2903DA964A022393708A
:103C60005BE089B2652903DA924A0323937054E03A
:103C700089B27E2903DA8F4A042393704DE089B21A
:103C8000972903DA8B4A0523937046E089B2B0295D
:103C900003DA884A062393703FE089B2C92903DA20
:103CA000844A0723937038E089B2E22903DA814A13
:103CB0000823937031E089B2FB2903DA7D4A092396
:103CC00093702AE089B2B1F58A7F03DA794A0A2330
:103CD000937022E089B2B1F5967F03DC754A0B231D
:103CE00093701AE089B2B1F5A37F03DA714A0C230D
:103CF000937012E089B2B1F5AF7F03DC6D4A0D23FA
:103D000093700AE089B2B1F5BC7F03DA694A0E23E9
:103D1000937002E0674A0F23937089B21A2903DA7D
:103D2000644A0023D37069E089B2332903DA614A17
:103D30000123D37062E089B24C2903DA5D4A022381
:103D4000D3705BE089B2652903DA5A4A0323D37042
:103D500054E089B27E2903DA564A0423D3704DE039
:103D600089B2972903DA534A0523D37046E089B212
:103D7000B02903DA4F4A0623D3703FE089B2C9293C
:103D800003DA4C4A0723D37038E089B2E22903DA18
:103D9000484A0823D37031E089B2FB2903DA454A47
:103DA0000923D3702AE089B2B1F58A7F03DA414A48
:103DB0000A23D37022E089B2B1F5967F03DC3D4A35
:103DC0000B23D3701AE089B2B1F5A37F03DA394A25
:103DD0000C23D37012E089B2B1F5AF7F03DC354A12
:103DE0000D23D3700AE089B2B1F5BC7F03DA314A02
:103DF0000E23D37002E02F4A0F23D370704710B503
:103E00000400200040B2FFF785FE2B48007810F038
:103E1000FD00294908702848007850F01000264914
:103E200008702648B821017025480078C006FBD4E8
:103E300023480078C0F38100C0B20228F8D11D48A1
:103E4000C3781C4882781B4841781A480078FFF7ED
:103E50005DFE64B2164810EB8400807810F0070015
:103E60001849087064B2124810EB8400C07810F052
:103E70001F0050F040001449087011480078800677
:103E8000FBD50F4800784006FBD50C48007810F0B1
:103E90003F000A4908700A480078C0F38100C0B2A8
:103EA0000328F8D164B2024830F82400C0B210BD33
:103EB0003C0BFF1F940BFF1F0140064000400640D3
:103EC0000640064004400640054006405C44444429
:103ED000C475464444C444445C0020202213120AA2
:103EE00004040A091020000088C43396D4B79456FD
:103EF00010EF08F80800003F2014263D1624201972
:103F000006192000042424242F24E4242F2424240C
:103F10000400212111110907011F21212121310054
:103F200012248008C87FC808FE2222FE000018065E
:103F300001000F0427180721213F000002E20207B9
:103F4000F28242322267A222020020203E22233E39
:103F5000223E22223E2120001CC444444445F64413
:103F6000444444C41C00003F121212121F121212C9
:103F7000123F000000F848484848FF48484848F8C1
:103F800000000007020202021F2222222223380020
:103F9000404141414141E151494543414000000018
:103FA000000020203F00000000000000101012144C
:103FB000D03F1090101010F00000201008060100F3
:103FC00000002320100F00001008FC038864070481
:103FD000F40424CC00002018011C2020232D2130C3
:103FE0000004180000FE2222FE00FE42C25252DEF1
:103FF0000000201F01213F003F100B040A11200088
:10400000404844262B9212122A26424040000021AA
:1040100011090503010121211F00000000008898FB
:10402000B0A080FC80E09088880000002024242438
:104030002424242424247F000010D0505458D0106D
:10404000109814F0101000007F0A0A4A7F00004FF9
:10405000407F0000000000000000FC101010101055
:10406000100000007F21212121212121217F00003A
:10407000000038884828080C084848883800004064
:1040800041424242427E4242424241400000FC40A4
:1040900040404000FC804040600000007F20202025
:1040A00010007F40404060200000006000000000E1
:1040B00000000000000000000010000000000000F0
:1040C00000000000000848C8485C48C8485C48C870
:1040D000480800442424150C047F040C17242424CD
:1040E0000000F094949890F0989490F000000008EC
:1040F0000B0A0A0A0A7F0A0A0A0B08080000F09055
:10410000909090FC909090F0000000000F04040448
:10411000047F4444444F4030004044D84040484825
:1041200048F8444444400000007F10087E222223C7
:1041300022227E000020304C48D8C8F0E8CCE8D8D5
:1041400048080041310E101733331753537F1010B6
:104150000000E020202020FC20202020E0000000A3
:104160000702020202FF0202020207000000FC0432
:10417000242424E424242404FC0000007F20292992
:10418000292F2B2F29287F000008F84848F82824D9
:1041900038E0302C240000101F12127F4A22120F28
:1041A0000A326242004448D000C84858E86858487B
:1041B000C8000040203F203F45455F4545655F40C2
:1041C0000000000000000000002F000000000700B9
:1041D000070000147F147F1400242A7F2A12006233
:1041E00064081323003649552250000005030000DF
:1041F00000001C224100000041221C000014083E67
:1042000008140008083E0808000000A0600000082C
:104210000808080800006060000000201008040280
:10422000003E5149453E0000427F4000004261513E
:104230004946002141454B31001814127F100027D8
:1042400045454539003C4A4949300001710905039B
:1042500000364949493600064949291E00003636CC
:10426000000000005636000000081422410000142F
:10427000141414140000412214080002015109060C
:1042800000324959513E007C1211127C007F49498D
:104290004936003E41414122007F4141221C007FBE
:1042A00049494941007F09090901003E4149497ACC
:1042B000007F0808087F0000417F41000020404146
:1042C0003F01007F08142241007F40404040007FB2
:1042D000020C027F007F0408107F003E4141413EF6
:1042E000007F09090906003E4151215E007F09193E
:1042F00029460046494949310001017F0101003F3B
:104300004040403F001F2040201F003F4038403FBA
:10431000006314081463000708700807006151491E
:10432000454300007F41410000552A552A550000B1
:1043300041417F000004020102040040404040402F
:10434000000001020400002054545478007F4844C7
:10435000443800384444442000384444487F0038FE
:104360005454541800087E0901020018A4A4A47C27
:10437000007F080404780000447D400000408084F1
:104380007D00007F102844000000417F4000007C39
:1043900004180478007C0804047800384444443845
:1043A00000FC242424180018242418FC007C080491
:1043B000040800485454542000043F444020003C6A
:1043C0004040207C001C2040201C003C4030403CF1
:1043D000004428102844001CA0A0A07C0044645481
:1043E0004C44141414141414DFF800F0832B000050
:1043F000DFF800F0732D00005448F021017053489D
:1044000000780006FBD5514800787121084201D0A0
:10441000002000E00120704780B54D48006850F44E
:1044200000204B490860494800780006FBD5474802
:10443000F02101700A20FFF7DBFF01BD10B582B04B
:104440000400A4B24FF4805000FB04F000904148F7
:10445000092101709DF802003F4908709DF8010094
:104460003E4908703E489DF800100170FFF7C4FFF8
:10447000002801D100200EE0A4B2002C0AD15FF088
:10448000FF327FF001034FF48161200080B200F021
:1044900003F800E0012016BDF0B583B006000F0060
:1044A00014001D00B6B24FF48050BFB200FB06707E
:1044B0000190BFB2082097FBF0F101FB10710029B9
:1044C00003D0EA212748FFF78FFFBFB2B7F5805F1F
:1044D00003DDEC212348FFF787FF9DF806001E4906
:1044E00008709DF805001D4908701D489DF80410CE
:1044F000017000949DF803001B4908709DF80200AC
:104500001A4908709DF801001949087019489DF86A
:10451000001001700F480721017000959DF80300FD
:10452000154908709DF80200144908709DF80100B3
:104530001349087013489DF800100170FFF75CFFE5
:10454000002801D1002000E00120FEBD0000024053
:1045500004F001400700024006000240050002404E
:1045600004000240804E00000B0002400A0002409E
:1045700009000240080002400F0002400E00024005
:104580000D0002400C000240F0B4114E36683400B9
:104590000F4E366856F47F060D4F3E600E0616F03D
:1045A000706656EA0076170517F470073E431F043D
:1045B00017F470273E43074F3E6000263500EDB2EA
:1045C0009D4201D26D1CFAE7014E3460F0BC704789
:1045D00000F001404480044080B500F095F800F000
:1045E0002AF800F00AF8FEF7E9FA01220121042076
:1045F000FEF7C6F900F0A8F8FEE780B50420FFF743
:10460000FEFB33490860324800684FF47A71484332
:10461000304908602F4800682F490968C1F30361D9
:10462000491CB0FBF1F02D4908605FF4E131032033
:10463000FEF7B6FB01BD2DE9F84329482949884218
:104640000DD000208046B8F5826F08D22448254955
:1046500051F8281040F8281018F10108F3E7204815
:1046600000F0E8F820480700204806002048040031
:10467000A01B80464046B0F10108002804D03078E5
:104680003870761C7F1CF5E71A4881461A480500E9
:10469000B5EB090080464046B0F10108002805D07E
:1046A000002089F8000019F10109F4E713481449C2
:1046B000144A531A98464346B3F10108002B04D01C
:1046C0000B780370491C401CF5E7BDE8F18300003E
:1046D000180FFF1F140FFF1F448004401C0FFF1F03
:1046E0000000FF1F000000001004FF1F5819000009
:1046F00058220000000FFF1F700FFF1F100DFF1F3B
:10470000E8430000D845000080B500F008F80C48E8
:1047100000884FF6FE7108400949088001BDEFF39B
:10472000118072B607494CF220520A8005494DF6B5
:1047300028120A80C0B2002800D162B6704700007B
:10474000002005400E20054080B500F0A7F80020AD
:10475000FEF782FC00280FD12C48006800F01AF9FF
:104760002B4A2C4BFDF782F800F03CF927490860F2
:104770002648006800F0D0F80120FEF76DFC002804
:10478000E5D12248006800F005F9214A224BFDF7E7
:104790006DF800F027F91D4908601C48006800F01A
:1047A000BBF8D4E780B51D48009001237F2200218B
:1047B0000020FEF79FF81A4A02212420FDF7EFFEA1
:1047C00012480068174900F055F900F0BFF90200DF
:1047D00012B205210020FDF782FF134A06210020B6
:1047E000FDF7DDFE08A206213920FDF783FE0F4A02
:1047F00006215520FDF7D3FE0D48006850F001005A
:104800000B49086001BD00004F4B0000100FFF1F57
:104810007B14AE47E17A843FE17A84BFD00BFF1F5F
:10482000445000000000C8425C500000645000008A
:104830000C71034010B504004FF4007094FBF0F1CC
:1048400001FB1041002903D01E210B48FEF799F906
:104850000A48046010BD38B504000D000748006820
:104860000749884203D030210348FEF78AF964B231
:10487000034840F8245031BD304F000008ED00E0FF
:104880000000FF1F10B440B241093B4A012310F061
:104890001F04A34042F8213010BC704780B50023AC
:1048A00042F2107202210020FEF7BCFF002342F208
:1048B000107203210020FEF7B5FF002342F21072B0
:1048C00004210020FEF7AEFF002342F21072052102
:1048D0000020FEF7A7FF6423642204210320FEF7D3
:1048E000A1FF002000F018F8FDF746FD23480068FE
:1048F000052101FB00F1002000F04AF92049542075
:10490000FFF7A9FF4420FFF7BDFF0020FEF76EFB75
:104910000120FEF76BFB01BD10B504002000194912
:1049200000F074F904D92000174900F081F900D291
:1049300021E02000002100F07BF90ED21348210075
:1049400000F098F8124900F085F900F0FFF8020035
:1049500004210320FFF73DF80DE00C48210000F092
:1049600089F80B4900F076F900F0F0F80200042114
:104970000320FFF72EF810BD00E100E01C0FFF1F21
:10498000A54700000100803F000080BF0000F0420A
:104990000080AC445FF0FF0C1CEAD05114BF6145AD
:1049A00006E0C110400721F0E04101F1605170477D
:1049B00079B900F0004100020AD0B0FA80FC00FA98
:1049C0000CF001F16051A1EB0C5101EBD02140053D
:1049D000704741020CBF40F4E0016FF0000100207D
:1049E000704700004FEAF17CBCF1E04C2CBFBCF5F5
:1049F000001F11E05FEA4C0C34BFBCF17F5F2EE07A
:104A00005FEA9C0C4FEA0C1C4FEA3C0CC10071F1B0
:104A100000414CEB50707047C90241EA5051C0024E
:104A200018BF41F0010141F000414FEA6C50C0F164
:104A30000900212810D240EACC7CCCF1200C11FADC
:104A40000CF070F10040CCF1200C21FA0CF00CF0CD
:104A5000004C40EB0C0070474FEACC7070474900A7
:104A600011F5001F04D84FEACC10FF30C005704785
:104A7000C8177047FF2212EAD05C1DBF12EAD1535B
:104A8000944593422BE09C44D30780EA01021A40EC
:104A900043EA002043EA0121A1FB0030410038BF76
:104AA00040007CF17F010BDBFE294ADA5B0842EA19
:104AB000C15153EA006373F1004C51EB1020704771
:104AC000D1F1080CDCF120012FDB5B0810FA01F1B9
:104AD0000B4373F1004120FA0CF0504170479445AC
:104AE0001CBF02EAD153934280EA010202F0004265
:104AF0001DD0400019D0490017D05BB9634514D0D0
:104B00000902B1FA81F39940BCEB030CC00140F0FB
:104B10000040C1E70002B0FA80FC10FA0CF0B3EBE1
:104B20000C0CC90141F00041B6E71000704740008D
:104B30000AD0490008D010F1807F94BF11F1807F26
:104B400002E042F0FF407047D04370474100090E39
:104B50007F3915D4D1F11F0114D4400007D2C00110
:104B600040F00040C84048BF6FF000407047C001AF
:104B700040F00040C8404CBF4FF0004040427047FA
:104B80000020704700424FF0004058BFC0437047BC
:104B900038B504000D00002D03D122211748FDF780
:104BA000F0FF1748006850F40000154908601548E8
:104BB0000021016064B2200113496A1E425064B2B0
:104BC000114810EB0410C06850F0010064B20E49A7
:104BD00011EB0411C86064B20B4810EB041080683C
:104BE0004008400064B2084911EB0411886064B2C7
:104BF000054810EB04100321816031BD544E0000C4
:104C00003C80044000700340007103404FF0807C02
:104C10001CEB400F94BF1CEB410F05E040EA010C78
:104C20005FEA4C0C01D28142704718BF884270473E
:104C30004FF0807C1CEB400F94BF1CEB410F05E054
:104C400040EA010C5FEA4C0C01D28842704718BF61
:104C50008142704790EA010F44BF81F0004100F0AB
:104C60003BB800BF421A3CBF801A89184FF0004C75
:104C7000C0F3C752FF2A24D0C1F3C75313B3D21ACB
:104C8000D2F1190327DD4CEA01214CFA03F321EAA2
:104C90000303D140C20D4CEA0020401834BF20EA83
:104CA0000C004CEA5000D20553EA006373EB0C0C85
:104CB00052EB1020420012F1807F38BF7047C00DC8
:104CC000C0057047490212BF9A4200EB5120F8E735
:104CD000D2F11703D9D57047431A4FF000423EBFB7
:104CE0005340C01AC91800BFD3095FEAD05C13EB68
:104CF000400F34BFB3EB410F40E07CEBD1530CD3FA
:104D000042EA012122D8D1EB402009D3400A28BF32
:104D10005FEA500140EBCC507047401A15D040027A
:104D2000B0FA80F2521C9040400A4FEA3C23B3EBA9
:104D3000026384BF00EB730007E040F400001A1622
:104D4000DB07C2F10102D04018437047182BFCDC8E
:104D500031FA03F202FA03F3591A38BF42F00102A2
:104D6000D2EB40203CBF4000ACF1010C5FEACC5CD0
:104D7000C20572F100414CEB5020704713EB400F1D
:104D80000FD24B0009D0ACEBD153022B03DB49020D
:104D9000172BDDDD70479143401A4300D5D1002029
:104DA000704713EB410FD0D36FF000007047000045
:104DB0000A2A2A2A2A64656661756C745F697372AF
:104DC00020656E7465726564206F6E20766563740D
:104DD0006F722025642A2A2A2A2A0A0A2573204962
:104DE0006E7465727275707400000000B0B2BBD54D
:104DF000CEDFBAFEC0B6D6E6B5E7D7D3CEAAC4FAA0
:104E0000B7FECEF1B5B1C7B0D5BCBFD5B1C8A3BA56
:104E1000B2CBB5A5B5E7BBB0B2BED6D0B9FAC1AA80
:104E2000CDA80000463A5C536D6172744361725CB8
:104E3000666F725F746573745C436869705C7372EB
:104E4000635C4D4B36305F5379735469636B2E63EB
:104E500000000000463A5C536D6172744361725CFD
:104E6000666F725F746573745C436869705C7372BB
:104E7000635C4D4B36305F5049542E630000000098
:104E8000463A5C536D6172744361725C666F725F27
:104E9000746573745C436869705C7372635C4D4BDA
:104EA00036305F666C6173682E630000463A5C536F
:104EB0006D6172744361725C666F725F7465737466
:104EC0005C436869705C7372635C4D4B36305F663F
:104ED000746D2E6300000000463A5C536D6172747D
:104EE0004361725C666F725F746573745C4368697A
:104EF000705C7372635C4D4B36305F6770696F2E08
:104F000063000000463A5C536D6172744361725CE9
:104F1000666F725F746573745C436869705C73720A
:104F2000635C4D4B36305F756172742E6300000018
:104F3000463A5C536D6172744361725C666F725F76
:104F4000746573745C436869705C7372635C6D69EB
:104F500073632E630000000010B5074979441831CF
:104F6000064C7C44163404E00A68081D5118884732
:104F70000146A142F8D110BD2C000000380000000D
:104F8000417373657274696F6E206661696C6564E4
:104F900020696E202573206174206C696E65202560
:104FA000640A0000F3BFFFFF70000000000FFF1F46
:104FB000000000000ABDF8D0D0BDE2CBF8B2D9D7CE
:104FC000F7A3ACC7EBD6D8D0C2CBA2C8EBB9CCBC48
:104FD000FE00000000F009F8002801D0FFF7BCFF38
:104FE0000020FFF7B1FB00F002F80120704700F04D
:104FF00001B800000746384600F002F8FBE7000061
:1050000001491820ABBEFBE72600020038B5044674
:105010000D46284600F006F8A84218BF0024204696
:1050200032BD00000149FDF7BFBD00BFD00CFF1F1E
:105030000ABDF8C8EBCBC0D1ADBBB7B5C8B4FDA3B2
:10504000A1000000D6D0B9FAC1AACDA80000000086
:10505000C046C046C046C046FFF7BCFFB2CBB5A5B0
:1050600000000000B5E7BBB0B2BE000000000000C9
:105070000000000000000000000000000000000030
:105080000000000000000000FFFFFFFFFFFFFFFF28
:105090000000000000000000000000000000000010
:1050A0000000000000000000000000000000000000
:1050B00000000000FFFFFFFFFFFF000000000000F6
:1050C00000000000000000000000000000000000E0
:1050D00000000000000000000000000000000000D0
:1050E00000000000000000000000000000000000C0
:0450F00000000000BC
:040000050000505156
:00000001FF
