:10000000F8FF002011040000F7280000F728000086
:10001000F7280000F7280000F7280000F728000064
:10002000F7280000F7280000F7280000F728000054
:10003000F7280000F7280000F7280000F728000044
:10004000F7280000F7280000F7280000F728000034
:10040000FFFFFFFFFFFFFFFFFFFFFFFFFEFFFFFFFD
:1004100062B603F015FCFEE72DE9F04FA1B082466D
:1004200002AE002017461D46029170620DF144088D
:100430000AE017F8011B0298D0470290002800F04C
:100440008782706A401C7062387808B9706A81E2ED
:100450002528EED10020F06030617061B061F0615C
:10046000306201E040F0010017F8011F2029F9D0A7
:1004700023290DD02B2904D02D2906D030290AD0CC
:100480000CE040F0020080B2EEE740F00400FAE732
:1004900040F00800F7E740F01000F4E72A290DD1FA
:1004A00029680A1D2A600968F162002904D54942B9
:1004B00040F00400F16280B27F1C13E00021F16281
:1004C0000BE0F16A6FF00043994205D001EB810324
:1004D00002EB43013039F1627F1C3A78A2F130011E
:1004E0000A29EED339782E2903D04FF0FF31B162BB
:1004F0001EE017F8011F2A2906D129680A1D2A6063
:100500007F1C0968B16213E00021B1620BE0B16A9F
:100510006FF00043994205D001EB810302EB4301E8
:100520003039B1627F1C3A78A2F130010A29EED34A
:1005300030860FF64820397800F03EFD08B117F8F4
:10054000010B8DF83A009DF83A00682802BF39780F
:100550006829622005D06C2804BF38786C2803D144
:1005600071208DF83A007F1C11A8B0603978B1F184
:1005700025001FD0203802286CD9133800F0958050
:100580000B3800F02B81401E00F0D480401E022862
:1005900060D9001F00F0CE80401F30D0401E00F018
:1005A0008480401E20D0C01E09D0801E7DD0C01E79
:1005B0007BD01BE1F068411CF160252120E1286817
:1005C000011D29600068B26A7060002A02D500F03F
:1005D000FFFC07E0002100F017FD00281ABF71683A
:1005E000401AB06A30610DE12868011D29600021C0
:1005F0000068CDE9000111A870607821EAE09DF85B
:100600003A00622818D0682806D06A280BD06C28D7
:1006100019D0712807D016E02868011D29600068EC
:10062000716A0180EEE02A68101D28601268706A05
:10063000C117C2E90001E5E02868011D29600068D2
:10064000716A0170DEE02868011D29600068716A26
:100650000160D7E02868C01D20F00700286000F185
:1006600008022A60D0E90023CDE90023002B04D53D
:10067000F068421CF2602D220DE0308E820704D516
:10068000F068421CF2602B2205E0C00705D5F06837
:10069000421CF260202200F80820F06811AA80189D
:1006A000706000A800F008FAACE09DF83A006C28F1
:1006B00008BF2A6811D0712808BF2A6802D02A68AA
:1006C0006A280AD1D21D22F007022A60144604F1DA
:1006D00008022A60D4E9002303E0131D2B600023E5
:1006E0001268CDE90023682808BF92B207D06228BB
:1006F00008BFD2B203D0742818BF7A2802D10023D1
:10070000CDE9002396F8300000075FD5DDE900232E
:10071000002B08BF002A59D041F02000782855D17D
:10072000F068302200F80820401C421CF26000F8FB
:1007300008104BE09DF83A0062280CD0682810D0D1
:100740006A281AD06C2823D0712816D074281FD09C
:100750007A280CD01CE02868021D2A6090F900203D
:100760001AE02868021D2A60B0F9002014E0286809
:10077000021D2A60002302680FE02868C01D20F0D7
:100780000700286000F108022A60D0E9002304E095
:100790002868021D2A600268D317CDE90023002BC8
:1007A00004DAF068421CF2602D220DE0308E8207E0
:1007B00004D5F068421CF2602B2205E0C00705D585
:1007C000F068421CF260202200F80820F06811AAAC
:1007D0008018706000A800F0C0F813E0F068411CB9
:1007E000F16029680A1D2A60096809E0F068421C66
:1007F000F260252200F8082021B1F068421CF26066
:1008000000F80810F06AF168401AB169401A3169BD
:10081000401AF169401A7169401A316AA0EB010966
:1008200096F830007F1C400710D420208DF840003F
:10083000002409E0012310AA00A9504600F086FB1D
:10084000002840F08580641C4C45F3DBF4680DF112
:10085000440B0AE01BF8011B0298D04702900028C5
:1008600076D0706A401C7062641E002CF2D1302079
:100870008DF840004FF0000BB46909E0012310AA85
:1008800000A9504600F062FB002861D10BF1010B7A
:10089000A345F3DB3469D6F804B00AE01BF8011B6A
:1008A0000298D0470290002852D0706A401C7062B3
:1008B000641E002CF2D130208DF840004FF0000B68
:1008C000F46909E0012310AA00A9504600F03EFB9C
:1008D00000283DD10BF1010BA345F3DB30697168B2
:1008E000746900EB010B09E01BF8011B0298D0476B
:1008F000029068B3706A401C7062641E002CF3D1D1
:1009000030208DF840004FF0000B346A08E00123DE
:1009100010AA00A9504600F019FBC8B90BF1010B51
:10092000A345F4DB96F8300040077FF58DAD20201D
:100930008DF84000002400E0641C4C45BFF684ADF7
:10094000012310AA00A9504600F000FB0028F3D0B4
:100950004FF0FF3021B0BDE8F08F2DE9FA47064691
:1009600082B035690A466F2A08BF082705D041F0D2
:100970002000782814BF0A271027D6E900013C245C
:1009800080468946642A18BF692A05D1002903DAFE
:10099000D8F1000869EB4909B9F1000F08BFB8F1B7
:1009A000000F0CD1306B50B9082F3BD196F83800AE
:1009B000000737D530203B2485F83B0032E0CDE9F5
:1009C0000089FB17404649463A4600F049FBB846C5
:1009D000A8FB0023DDE90089A8EB02023032A4F174
:1009E000010AD2B254463A2A03DB9DF80830513B43
:1009F0009A180AF8052080465FEA010908BFB8F195
:100A0000000F03D0F06861198842D8D3082F09D1AC
:100A100096F83800000705D5605D302802D0641EC6
:100A200030206055C4F13C00B0616119F160316B58
:100A3000884207DA081A30624FF6EF71308F0840AB
:100A4000308710E000290ED596F8381001F0140117
:100A5000102908D1716B7269891A326A891A081AC9
:100A60000128A8BF306204B0BDE8F0872DE9D0436B
:100A700006460F4614464FF00008DFF8389012E0A3
:100A8000E00707D542464B463046394600F060FB4A
:100A900006460F4664104046494642464B4600F023
:100AA00057FB80468946002CEAD130463946BDE8DE
:100AB000D0830000000024402DE9F34F8BB0D0E933
:100AC0000089006B01AF002802D50B98062106E0D3
:100AD00004BF41F02000672802D10B980121016377
:100AE0000B984168C1F30A5040F2FF72904220D146
:100AF000080302BF0B98006800280AD10B98032155
:100B000081619DF8300061381A2844D30FF280418A
:100B100009E00B98032181619DF8300061381A28A3
:100B200036D30FF264410B98C068032200F0E2FB59
:100B3000EFE0012807DA0B9800F017FC012802DB30
:100B400000230026DCE00B9A526840F2FE3161F38C
:100B50001E520B994A6040F2FE31461A4046494601
:100B60000022002300F022FC38BF89F0004936B291
:100B700047F297507043414990FBF1F636B2C6F107
:100B80000702012A0ADB40464946FFF76FFF27E0CC
:100B90000FF2F031C7E70FF2F431C4E757420024F7
:100BA000374DDFF8E0B09A4612E0F80707D5524615
:100BB0005B462046294600F0CBFA04460D467F10DE
:100BC0005046594652465B4600F0C2FA82468B4672
:100BD000002FEAD14046494622462B4600F0FEFB54
:100BE00080469DF8300040F020058946662D0CBFF8
:100BF00006F10A0006200B99096B4718142FA8BFAD
:100C0000132730208DF804000DF10504DFF878B0CB
:100C1000012F3BDB4046494600F004FD014604F14C
:100C2000080204234FF00A0CB1FBFCFC0CEB8C0413
:100C3000A1EB4401303102F8011D0A21BCFBF1FE99
:100C40000EEB8E04ACEB44043034714602F8014DD7
:100C50005B1EE7D1083F02F10804012FD8DB00F04A
:100C6000F7FC02460B464046494600F0FFFC0022D6
:100C70005B4600F06DFA80468946CBE7A08601000E
:100C80000000F03F0000244084D797410DF105009B
:100C9000201A0DF1050702E0401E761E7F1C3978F0
:100CA0003029F9D0662D02D136B2711C03E0652DD2
:100CB0000CBF012100210B9A126B8B181BB29842BA
:100CC000B8BF03461BB219001AD4814204DAC85DCA
:100CD0003528A8BF392000DA3020CA19521E00E09A
:100CE0005B1E12F80159491E8542F9D0392802D1FC
:100CF000C85D401CC855002902D57F1E5B1C761CB0
:100D000036B29DF830100B9800961BB23A4600F0B0
:100D100003F80DB0BDE8F08F2DE9F04786B0064628
:100D20008A4690461D4600F07EFD406A376B90F87B
:100D30000090012D02DA01250FF258284AF0200018
:100D4000BDF93840662808BF641C13D0672840F0FE
:100D5000878014F1040F72DBBC4270DA96F8380019
:100D6000641C000702D4BD42B8BF2F4624B23F1B0B
:100D700048BF0027F068B16924B2012C21DA302382
:100D80004A1C0B54012F03DA96F83810090702D5D4
:100D900002F80090521CB261E742B8BF7C4224B214
:100DA0006142E7197162AF42B8BF3D462DB2F561AD
:100DB0002A46B3694146181800F09CFA781BB062C5
:100DC000ADE00818A54216DA2A46414600F092FA2C
:100DD000B1696918B161601B7062012F03DA96F87E
:100DE0003800000705D5F06801F80090F069401C54
:100DF000F061B76293E02246414600F07BFAB069A9
:100E000020182D1B012F03DA96F83810090703D597
:100E1000F16800F80190401C2DB2B061AF42B8BF3C
:100E20003D46F3682DB22A4604EB0801C01800F0D5
:100E300061FAB0692818B061781B70626FE0BD423A
:100E400004DA96F83810090758BF2F467F1E48BFAE
:100E50000027BAF1670F0CBF4FF0650A4FF0450A43
:100E6000B169F06818F8013B0B544A1C012F05DAF0
:100E700096F83810090758BFB26115D502F80090EE
:100E8000531CB361012F0FDB6D1E2DB2AF42B8BFF3
:100E90003D462DB22A464146181800F02BFAB0699B
:100EA0002818B061781B7062B069F16800EB010826
:100EB000200008F801AB03D42B2008F8010B03E055
:100EC0002D2108F8011B4442002502AF08E00A2248
:100ED00000A800F0C1FC019807F8010B6D1C009CF4
:100EE00021B20129F3DA022D06DA4AF02000652842
:100EF00004BF302008F8010B4DB9302008F8010B71
:100F000007E06D1E02A8285C303008F8010B012DA7
:100F1000F7DAB069F1684018A8EB0000F06196F8C4
:100F2000380000F0140010280DD17069B16908185C
:100F3000716A0818F1690818B16A0818716B88425B
:100F4000BCBF081A306206B0BDE8F087F8B50446A9
:100F50000D4616461F46002004E0E86A401CE86281
:100F60007F1E002047B116F8011BA868A047A860A3
:100F70000028F2D14FF0FF30F2BD0000686A6C74B7
:100F80007A4C00006E616E004E414E00696E660044
:100F9000494E4600300050F8041B61B150F8042B54
:100FA000D30744BFA9F101039A18002342F8043B78
:100FB000091FFAD1EFE770470278C9B28A421AB125
:100FC0001CBF10F8012FF9E718BF00207047FF0081
:100FD00000F10103810704D010F8011B89B18107DA
:100FE000FAD10268B2F10131914311F0803F04BFA0
:100FF00050F8042FF6E710F8011B11B110F8011B8F
:10100000FBE7C01A70470000C9B2830706D0521E22
:1010100022D310F8013B9942F7D11FE0083A13D3CD
:1010200002F1040241EA012141EA014150F8043B86
:10103000121F21BF4B40A3F1013C2CEA030C1CF012
:10104000803FF3D0C9B2001F083210F8013B521E96
:1010500028BF91EA030FF8D818BF0120401E70473F
:101060001B4213D1094236D12AB18446B0FBF2F0BB
:1010700002FB10C2704700F0F7BBFCD30022002334
:1010800070470B000200002100207047904271EB76
:10109000030CF6D370B5B1FA81F4B3FA83F52C1BC7
:1010A000A340C4F1200532FA05F63343A2405FF0B5
:1010B0000046E64002E05B085FEA3202841A71EB08
:1010C000030524BF204629467641F4D302000B00D5
:1010D0003000002170BD012ACFD970B5140C20D08A
:1010E000B1FA81F4B2FA82F5C4F120046419B4F1C2
:1010F0002006D6D3B2405FF00044F440002502E061
:1011000052085FEA3303C61A71EB020E24BF304661
:10111000714664416D41F3D302000B0020002900A9
:1011200070BD0C46B1FBF2F102FB11452D0445EAFE
:101130001045B5FBF2F402FB145580B240EA0545B8
:10114000B5FBF2F002FB105240EA044070BD000013
:10115000B0B581EA030C0CF0004C40F2FF7515EAC3
:1011600011541DBF15EA1357AC42AF4239E0E419E0
:1011700023EA455343F48013C90241F0004141EA98
:10118000505EC7021100A7FB020200284FF00000CA
:10119000EEFB01204FF00001E3FB072118BF42F0F6
:1011A0000102401800214941E3FB0E01A4F58064CF
:1011B0000F0302D252004041494154F101046CDD59
:1011C000470872F1004250F1000051EB0451A1F5C3
:1011D00080115CBF41EA0C01B0BD4CEA0551002012
:1011E000B0BD05EA1357AC4214BFAF4241E050EA2C
:1011F000410E1CBF52EA430E02E061460020B0BD22
:1012000024423C441BD15FEA070EF6D0090302BF1B
:1012100001460020AEF1140EB1FA81F7AEEB0704DF
:1012200001FA07FE0C37C7F1200100FA07F7C840A2
:101230004EEA000E23EA455343F48013A2E733F04D
:101240000043B3FA83F704BFB2FA82FE77440B3F40
:10125000E41BB7F1200E2FBF02FA0EF3BB40C7F11B
:10126000200E22FA0EFE38BF43EA0E03BA40641C79
:1012700082E750EA410E14BF52EA430E6FF00001BC
:101280004FF4001717EB430F8ABF194617EB410FB6
:10129000B5E74CEA05510020B0BDD4F10104B4F12A
:1012A00020070FDAC4F12007520828BF42F00102DC
:1012B00010FA07F501FA07F7E1BF2A43E040384387
:1012C000E1400FE0352C98DCC7F1200452EA4002DF
:1012D00020FA07F218BF42F0010231FA07F0A140EC
:1012E0000A43002172F1004250F1000051EB0C0161
:1012F000B0BD000062B38B0708D0521E11F8013B4D
:1013000000F8013B00F024808B07F6D1830740F002
:10131000208000BF103A07D330B4B1E83810103A3B
:10132000A0E83810F9D230BC530724BFB1E8081048
:10133000A0E8081044BF51F8043B40F8043BD20732
:1013400024BF31F8022B20F8022B44BF0B78037026
:101350007047083A07D3B1E80810083A40F8043B50
:1013600040F804CBF7D25307E4E730B4436803F006
:10137000004201211B031B0B436004BF0368002BC9
:1013800008D10DE00368DD0F45EA440444605B00CA
:101390000360491E4468E302F4D523031B0B43603A
:1013A00043681A434260084630BC70474FF4001C43
:1013B0001CEB410F94BF1CEB430F09E041EA030C07
:1013C00050EA4C0C52EA0C0C03D2994208BF9042EE
:1013D000704714BF8B42824270470000F0B540F264
:1013E000FF7581EA030C0CF0004C15EA11541DBF87
:1013F00015EA1357AC42AF42E5E0BC41C1F313011B
:10140000C3F31303801A994143F4801304D2641E7A
:101410004000494180185941C90241EA5051B1FB8D
:10142000F3F603FB1611A2FB0675D7EBC020A9410A
:1014300002D2761E80185941C90241EA5051B1FBCF
:10144000F3FE03FB1E11A2FB0E75D7EBC020A941D2
:1014500003D2AEF1010E80185941890241EA905140
:10146000760546EA8E2EB1FBF3F603FB1611A2FBBE
:101470000675D7EB8020A94102D2761E801859410B
:10148000C90241EA50514EEA060EB1FBF3F603FBE6
:101490001611A2FB0675D7EBC020A94102D2761E19
:1014A00080185941C90241EA5051B1FBF3F703FBDF
:1014B0001711A2FB0735D3EBC020A94167F1000744
:1014C0000CBF004247F0010766F3D5274FEA1E31F3
:1014D000B80814F5806412DDBD0775F1004250EBC9
:1014E0000E5051EB045111F5801F5CBF41EA0C0115
:1014F000F0BD4CF07F6141F0E0410020F0BDBD0740
:101500006D0840EA0E5041F48011D4F10104B4F1A9
:1015100020060ADAC4F120060200E04001FA06F3D0
:10152000E1401843B24015430EE0342C13DCC6F101
:10153000200445EA40056D0820FA06F2154321FA19
:1015400006F0A1400D43002175F1004250F100006A
:1015500051EB0C01F0BD00205FEA0C01F0BDCFB9EA
:1015600092185B41B3FA83F704BFB2FA82F6BF194F
:101570000B3FB7F120062FBF02FA06F3BB40C7F1BD
:10158000200622FA06F638BF3343BA401CB1E419EC
:10159000641E33E77F4231F00041B1FA81F404BFA9
:1015A000B0FA80F6A4190B3CB4F120062FBF00FA64
:1015B00006F1A140C4F1200620FA06F638BF3143F7
:1015C000A0403C1B1AE7AC421ABF05EA1357AF42D2
:1015D00012E050EA41061CBF52EA4306BFE750EA58
:1015E0004107304661461CBF41EA0551F0BD52EA51
:1015F000430C08BFC143F0BD00204FF4001616EBAA
:10160000410F98BF16EB430F08BF16EB410F24BFE5
:10161000C14305E016EB430F0CBF61464CEA055190
:10162000F0BD0000400D40EAC120490080F00D806F
:1016300040F00040490DA1F58061491C05D4D1F16D
:101640001F0154BFC840C01770474FF000007047DB
:10165000010000BF09D0B0FA80F18840C91CC1F573
:101660008461090501EBD0214005704770B44FF04B
:10167000004591EA030F44BF6B4000F0F7B800BF8C
:10168000841A71EB030604D26E40001BB14112199B
:1016900073414FF4001C1CEB410F34BF7CEB43063D
:1016A00084E00C0DA4EB1356362E7DDC012E43DCBA
:1016B00045EAC32343EA525312BFD20292025B08A7
:1016C000240545EAC12141EA5051D2EBC02099419D
:1016D00025D407D1B0FA80F610FA06F164D00020C4
:1016E000203608E0B1FA81F6B140C6F1200220FAB6
:1016F00002F21143B0404FEAF474B4EB465434F0B4
:1017000001064FEA74040AD8D6F50016760D04F0E7
:101710000044F04061FA06F25040F1404840C00AEF
:1017200040EA415021F0004128BF5FEA500550F1E6
:10173000000044EBD12137E045EAC323DB0A45EA48
:10174000C121C90AB6F120050EDD42EA0242120C9F
:10175000C5F1200603FA06F6EB4042EA06056D42A3
:10176000984161F100010DE062FA06F5F240554042
:1017700063FA06FC82EA0C02F3405A406D42904143
:1017800061EB030111F4801F05D1641E620502D0D4
:101790006D004041494121F48011430875F1004337
:1017A00050F1000041EB045170BC70471CEB410F3D
:1017B00015D223F0004352EA43060BD04FEA4C0CFB
:1017C000BCEB410F04D80C0D661E342EB7DDEBE7E1
:1017D000801A994150EA410608BF0021E4E708BF9A
:1017E0001CEB430F28BF6FF00001DDE780B5134805
:1017F00000F0A6F80FF24801016041608160C1600D
:101800000161416181610FF23C0242628162C16209
:10181000016341630FF2300282630FF23402C2634C
:101820000164416401BD10B5044800F089F8044624
:10183000206808B9FFF7DAFF204610BDF423FF1F28
:10184000000000002E00000066616C73650000005F
:10185000747275650000000091FBF2F303FB121136
:10186000C0E900317047000070470000841A71EB36
:10187000030603D2001BB141121973414FF4001C3F
:101880001CEB410F34BF7CEB430443E00C0DA4EB95
:101890001356352E50DC45EAC323DB0A45EAC12145
:1018A000C912B6F120050DDD63FA05F6EB4086EAB4
:1018B0000305124218BF45F00105C01851F100019F
:1018C0000CD213E062FA06F5F2405540F3415A405B
:1018D000B340F3405A408018594107D349085FEAA2
:1018E00030005FEA350528BF45F0010501F580119C
:1018F000420875F1004250F1000041EB045170BC08
:101900004FF4001C1CEB410F38BF70470020090D3D
:10191000090570471CEB410F10D252EA43060BD069
:10192000BCEB410F05D80C0DAB43661E342EB5DD64
:1019300002E0AB438018594170BC704770BC7047DF
:1019400070470000000000000000000000000000E0
:101950000000000000000000000000000000000087
:1019600000004E6F6E4D61736B61626C650000002C
:1019700000486172644661756C74000000000000EC
:101980004D656D4D616E6167656D656E74000042F9
:1019900075734661756C740000000000000055739B
:1019A0006167654661756C7400000000000000000E
:1019B0000000000000000000000000000000000027
:1019C0000000000000000000000000000000000017
:1019D0000000000000000000000000000000000007
:1019E000000000000000000000535643616C6C00D2
:1019F000000000000000000044656275674D6F6ED6
:101A000069746F7200000000000000000000000018
:101A100000000000000050656E6453560000000096
:101A200000000000005379735469636B00000000EC
:101A300000000000444D41300000000000000000A4
:101A4000000000444D413100000000000000000093
:101A50000000444D41320000000000000000000082
:101A600000444D4133000000000000000000000071
:101A7000444D41340000000000000000000000441C
:101A80004D41350000000000000000000000444D02
:101A900041360000000000000000000000444D41FD
:101AA000370000000000000000000000444D4138F5
:101AB0000000000000000000000000444D4139001B
:101AC00000000000000000000000444D41313000E3
:101AD000000000000000000000444D4131310000D2
:101AE0000000000000000000444D413132000000C1
:101AF00000000000000000444D41313300000000B0
:101B0000000000000000444D41313400000000009E
:101B10000000000000444D4131350000000000008D
:101B200000000000444D415F4572726F720000007A
:101B30000000004D434D00000000000000000000C8
:101B400000004654464C0000000000000000000069
:101B500000526561645F436F6C6C6973696F6E00FE
:101B60004C56445F4C565700000000000000004CEB
:101B70004C5700000000000000000000000057610A
:101B8000746368646F6700000000000000524E47F5
:101B90000000000000000000000000004932433057
:101BA0000000000000000000000000493243310046
:101BB0000000000000000000000053504930000009
:101BC00000000000000000000053504931000000F8
:101BD00000000000000000005350493200000000E7
:101BE0000000000000000043414E305F4F525F4D47
:101BF000425F6275660043414E305F4275735F4FCE
:101C0000666600000043414E305F4572726F72009D
:101C10000000000043414E305F54785F5761726EA0
:101C2000696E6743414E305F52785F5761726E69EB
:101C30006E6743414E305F57616B655F55700000C2
:101C400000526573657276656435310000000000EE
:101C5000526573657276656435320000000000439A
:101C6000414E315F4F525F4D425F627566004341A6
:101C70004E315F4275735F4F666600000043414E10
:101C8000315F4572726F72000000000043414E31B7
:101C90005F54785F5761726E696E6743414E315F82
:101CA00052785F5761726E696E6743414E315F577C
:101CB000616B655F557000000052657365727665F3
:101CC0006435390000000000526573657276656402
:101CD0003630000000000055415254305F52585FCA
:101CE00054580000000055415254305F4552520094
:101CF000000000000055415254315F52585F545863
:101D00000000000055415254315F4552520000001E
:101D100000000055415254325F52585F5458000041
:101D2000000055415254325F4552520000000000FD
:101D30000055415254335F52585F54580000000020
:101D400055415254335F4552520000000000005587
:101D5000415254345F52585F5458000000005541BE
:101D60005254345F45525200000000000055415269
:101D700054355F52585F545800000000554152548A
:101D8000355F4552520000000000004144433000DE
:101D9000000000000000000000004144433100004A
:101DA000000000000000000000434D503000000023
:101DB0000000000000000000434D50310000000012
:101DC00000000000000000434D5032000000000001
:101DD00000000000000046544D30000000000000EC
:101DE000000000000046544D3100000000000000DB
:101DF0000000000046544D320000000000000000CA
:101E0000000000434D5400000000000000000000EE
:101E100000005254430000000000000000000000D9
:101E20000052657365727665643833000000000007
:101E30005049543000000000000000000000005035
:101E4000495431000000000000000000000050492B
:101E5000543200000000000000000000005049540F
:101E60003300000000000000000000005044423039
:101E70000000000000000000000000555342300048
:101E8000000000000000000000005553424443449D
:101E9000000000000000000000454E45545F313551
:101EA00038385F54696D6572454E45545F547261B0
:101EB0006E736D69740000454E45545F52656365ED
:101EC000697665000000454E45545F4572726F7239
:101ED0000000000000493253300000000000000004
:101EE00000000000534448430000000000000000D0
:101EF00000000044414330000000000000000000EA
:101F000000004441433100000000000000000000D8
:101F100000545349300000000000000000000000A1
:101F20004D43470000000000000000000000004C8E
:101F30005054696D65720000000000000000526599
:101F400073657276656431303200000000504F5284
:101F5000544100000000000000000000504F5254A7
:101F60004200000000000000000000504F525443A7
:101F700000000000000000000000504F52544400D8
:101F8000000000000000000000504F5254450000C7
:101F90000000000000000000526573657276656401
:101FA0003130380000000052657365727665643127
:101FB0003039000000005265736572766564313116
:101FC000300000000052657365727665643131310E
:101FD000000000005265736572766564313132002D
:101FE000000000526573657276656431313300001C
:101FF000000052657365727665643131340000000B
:1020000000526573657276656431313500000000F9
:102010005265736572766564313136000000005296
:102020006573657276656431313700000000526572
:102030007365727665643131380000000052657353
:10204000657276656431313900000000008003401C
:102050000090034000800B4000900B4000F00F40C8
:1020600040F00F4080F00F40C0F00F4000F10F40F3
:1020700066000A1D32000701640007106E000406A6
:10208000780004088200040A8C00040C9600040EF8
:10209000A0000410AA000412B4000414BE00041628
:1020A000C8000418D200041ADC00041CE100041D5E
:1020B000E600041EEB00041FF4000317FA000318E7
:1020C000130101062C0102140001090800900440CC
:1020D00000A0044000B0044000C0044000D0044010
:1020E00000A0064000B0064000C0064000D00640F8
:1020F00000A00E4000B00E4034353637010000001D
:102100000D41110009030CD01240173F185019035C
:102110001A783200A00A63E0ACFF650C6600670025
:1021200029142C1E2A007E0C7F16802A814E826183
:10213000836F847B8586868E879788A489AF8AC5BE
:102140008BD78CE88D204A00491347084B144C1755
:10215000460522992303A6049B009C70AB069E11A2
:102160009F020000310000006A6E6B6C676D4E4F7D
:1021700002040101A423FF1FF423FF1FA423FF1F58
:10218000A423FF1FA423FF1F790CFF1F600CFF1F58
:10219000000000000000000000000000000000003F
:1021A000000000000000000000000000000000002F
:1021B00038B504000D0064B2002C06D0022C69D0A2
:1021C0004CD3032C00F08280C7E0DFF86405006880
:1021D00050F08070DFF8581508606DB2002D0BD0FC
:1021E000022D15D00ED3042D1ED017D3062D27D0C7
:1021F00020D3072D2AD02FE04FF48061412000F03A
:10220000A3FA2AE04FF44071042000F09DFA24E084
:102210004FF44071052000F097FA1EE04FF4407132
:10222000062000F091FA18E04FF44071072000F00A
:102230008BFA12E04FF48061652000F085FA0CE023
:102240004FF48061662000F07FFA06E04FF4806171
:10225000672000F079FA00E07FE07EE0DFF8D0044C
:10226000006850F00070DFF8C81408606DB2002DEF
:1022700002D0012D06D00BE04FF440710C2000F08D
:1022800063FA06E04FF440710D2000F05DFA00E0C3
:1022900063E062E0DFF89C04006850F08070DFF8D3
:1022A000941408606DB2002D02D0012D06D00BE011
:1022B0004FF440710A2000F047FA06E04FF44071F5
:1022C0000B2000F041FA00E047E046E0DFF864044C
:1022D000006850F00070DFF85C1408606DB2002DEB
:1022E0000BD0022D15D00ED3042D1ED017D3062DE2
:1022F00027D020D3072D2AD02EE04FF4C0618520AF
:1023000000F022FA28E04FF4C061862000F01CFAA9
:1023100022E04FF4C061872000F016FA1CE04FF471
:10232000C061882000F010FA16E04FF44071482098
:1023300000F00AFA10E04FF4C0618A2000F004FABD
:102340000AE04FF4C0618B2000F0FEF904E04FF486
:10235000C0618C2000F0F8F9FFE731BD2DE9F84F9E
:1023600004000D0016001F0064B2002C11D064B2EE
:10237000012C02D064B2022C02D16DB2022D08DB16
:1023800064B2032C05D040F28511DFF8AC0300F0F5
:1023900048FA290049B2200040B2FFF709FFDFF8F0
:1023A0009C0300684FF47A71484380465FEA184006
:1023B000B0FBF6F08146002082461FFA89F959FAEF
:1023C0000AF0012802DB1AF1010AF6E75FFA8AFA3D
:1023D000BAF1080F05DB4FF4D071DFF85C0300F0B1
:1023E00020FA38FA0AF0B0FBF6F0814664B2DFF862
:1023F00050031FFA89F940F8249064B2002C05D0EC
:10240000022C1BD00ED3032C24D02FE01FFA89F905
:1024100019F1010000FB07F04FF47A71B0FBF1F005
:10242000834623E01FFA89F919F1010000FB07F048
:102430004FF47A71B0FBF1F0834617E01FFA89F987
:1024400019F1010000FB07F04FF47A71B0FBF1F0D5
:1024500083460BE01FFA89F919F1010000FB07F030
:1024600042F21071B0FBF1F08346FFE76DB264B247
:10247000DFF8D00250F8240010EBC5006DB264B252
:10248000DFF8C01251F8241011EBC501C96831F012
:102490000401C1606DB264B2DFF8A80250F82400F4
:1024A00010EBC5002821C16064B2DFF8980250F833
:1024B00024005FFA8AFA1AF0070151F0080101605E
:1024C00064B2DFF8800250F824001FFA89F9C0F8DE
:1024D000089064B2DFF86C0250F824000021C16457
:1024E0006DB264B2DFF85C0250F8240010EBC50056
:1024F0001FFA8BFBC0F810B064B2DFF8480250F846
:10250000240000214160BDE8F18F2DE9F041040075
:102510000D0016005FF0000864B2002C11D064B208
:10252000012C02D064B2022C02D16DB2022D08DB64
:1025300064B2032C05D04FF4F371DFF8FC0100F016
:1025400070F964B2002C05D0022C17D00CD3032CE8
:102550001ED028E0B6F57A7F05D94FF4F671DFF882
:10256000D80100F05EF91EE0B6F57A7F05D94FF488
:10257000F871DFF8C40100F054F914E0B6F57A7F81
:1025800005D94FF4FA71DFF8B00100F04AF90AE01A
:1025900042F21170864205D340F2F911DFF898013A
:1025A00000F03FF9FFE764B2DFF8940150F824002F
:1025B000804664B2002C05D0022C17D00CD3032C1B
:1025C0001ED027E018F1010000FB06F04FF47A71ED
:1025D000B0FBF1F007001DE018F1010000FB06F070
:1025E0004FF47A71B0FBF1F0070013E018F101002D
:1025F00000FB06F04FF47A71B0FBF1F0070009E040
:1026000018F1010000FB06F042F21071B0FBF1F08E
:102610000700FFE76DB264B2DFF8280150F824002C
:1026200010EBC5000761BDE8F08110B5040064B28D
:10263000012C07D064B2022C04D040F2DB213E48CA
:1026400000F0EFF864B22000012802D0022811D077
:1026500021E03748006850F00070354908604FF4B9
:10266000E0610C2000F070F84FF4E0610D2000F004
:102670006BF815E02F48006850F080702D49086015
:102680004FF4C0610A2000F05FF84FF4C0610B20E6
:1026900000F05AF804E040F21331274800F0C1F886
:1026A00064B2284850F82400406D50F0040064B231
:1026B000244951F82410486564B2224850F8240097
:1026C000D0F8800050F0080064B21E4951F8241080
:1026D000C1F8800064B21B4850F824000021C16496
:1026E00064B2184850F824004FF6FF71816064B25C
:1026F000144850F82400D0F8800050F0010064B273
:10270000104951F82410C1F8800064B20D4850F807
:102710002400406D50F0010064B20A4951F82410C1
:10272000486564B2074850F824000021416010BD9C
:102730003C8004403080044074430000A023FF1F0D
:102740006C0EFF1F180BFF1F10B4294A12684FF4BC
:102750000073C0B24409A3401A43254B1A60C0B2AB
:102760004211244B53F82220012310F01F04A340F0
:10277000C2F8A030C0B210F01F02C0B243111D4C0D
:1027800054F8233043F8221010BC704710B4184A94
:1027900012684FF40073C0B24409A3401A43144BAB
:1027A0001A60C0B24211134B53F82220012310F0DB
:1027B0001F04A340C2F8A03031F4E061C0B210F0B1
:1027C0001F02C0B243110B4C54F8233053F822209F
:1027D00012F4E0621143C0B210F01F02C0B2431104
:1027E000044C54F8233043F8221010BC704700000A
:1027F00038800440980BFF1FDFF800F0AD0CFF1F7E
:10280000DFF800F0D10CFF1FBFF34F8F4648006880
:1028100010F4E0604549084343490860BFF34F8F17
:10282000FEE738B504000D00002000F08DF82A0006
:1028300021003F4800F0C0F8002000F0A2F84FF45B
:102840007A7000F0E6F8F2E738B504000D002100D8
:1028500049B2042000F000FA200032BD10B5002477
:10286000042000F013FA042000F046FA002841D1B9
:10287000002000F069F8042000F03EFA012801D1A0
:1028800001200400002000F07CF82A4800F094F8B1
:102890004FF4FA7000F0BDF8E4B2012CEBD1042043
:1028A00000F02AFA0028E6D1042000F025FA0028DA
:1028B00006D1002000F065F8642000F0AAF8F3E7E4
:1028C000042000F019FA012806D1002000F059F880
:1028D000322000F09EF8F3E7174800F06DF8FFF79C
:1028E0008BFF642000F095F80020FFF789FFFFF7C9
:1028F0008BFFC0E710BD10B510480468012000F040
:1029000023F8012000F03DF8E4B20F200C4900FB51
:102910000412E4B221000B4800F04EF84FF47A7034
:1029200000F077F8EDE700000CED00E00400FA0598
:102930004844000090450000C444000004ED00E05D
:102940001004FF1FB042000010B5040064B2042C54
:1029500007DA0122012164B21648205C00F0E4F994
:102960000EE0042004002000441E40B2002807D0DE
:102970000122012164B20F48205C00F0D5F9F2E792
:1029800010BD10B5040064B2042C05DA64B2094825
:10299000205C00F020FA0CE0042004002000441E1B
:1029A00040B2002805D064B20248205C00F013FA5F
:1029B000F4E710BDC40BFF1F0EB400B582B003A92D
:1029C0000091024600AB0121034878440A30FDF72C
:1029D00023FD06BC5DF810FB951B000010B504003C
:1029E000002C15D0B4F1807F03D329210F48FFF7C5
:1029F00018FF0F48002101600E4804600E480021B6
:102A000001600B480521016009480068C003FBD53F
:102A100010BD10B504002000441E002804D0074853
:102A20000068FFF7DBFFF6E710BD0000EC42000096
:102A300010E000E014E000E018E000E09823FF1F41
:102A40002DE9F84304000D0064B2002C08D0022CDC
:102A50002CD018D3042C4FD03BD3052C5FD071E081
:102A6000DFF81002006850F48060DFF80812086098
:102A70004FF440716620FFF767FE4FF44071672006
:102A8000FFF762FE5EE0DFF8EC01006850F40060E2
:102A9000DFF8E01108604FF440714320FFF754FE67
:102AA0004FF440714420FFF74FFE4BE0DFF8C401C4
:102AB000006850F48050DFF8BC1108604FF440719A
:102AC0006320FFF741FE4FF440716220FFF73CFEA8
:102AD00038E0DFF8A001006850F40050DFF89411EE
:102AE00008604FF440715020FFF72EFE4FF4407104
:102AF0005120FFF729FE25E0DFF87C01006850F443
:102B00008060DFF8741108604FF440714E20FFF7C9
:102B10001BFE4FF440714F20FFF716FE12E0DFF866
:102B20005801006850F40060DFF84C1108604FF461
:102B300040718920FFF708FE4FF440718820FFF7AD
:102B400003FEFFE764B2DFF8340150F82400C078D8
:102B500010F0F30064B2DFF8241151F82410C870AB
:102B600064B2DFF8180150F8240064B2DFF80C11E9
:102B700051F824108978817064B2002C02D064B2BC
:102B8000012C07D1DFF8F80000684FF47A71484350
:102B9000814606E0DFF8EC0000684FF47A714843A4
:102BA00081462801B9FBF0F00600B6B2B6F5005F29
:102BB00002DB41F6FF700600B9FBF5F0B6B2B0EBF0
:102BC00006100700BFB2202F03DBDC212E48FFF7E1
:102BD00028FE64B2294850F82400007810F0E00084
:102BE0008046B6B2300A10F01F0050EA080064B206
:102BF000224951F82410087064B2204850F824008B
:102C0000467064B21D4850F82400807A10F0E0004D
:102C1000804664B2194850F8240017F01F0151EAA9
:102C20000801817264B2154850F82400007C50F00D
:102C3000880064B2114951F82410087464B20F4836
:102C400050F82400C07850F00C0064B20B4951F8E1
:102C50002410C870BDE8F18340B2084A52F8202021
:102C600012791206F8D540B2044A52F82020D171E8
:102C7000704700003480044028800440AC0BFF1FE4
:102C80009823FF1FA023FF1FCC43000010B50400B2
:102C900064B2082C0DDA0022002164B22148205CC5
:102CA00000F042F8032164B21E48205CFFF76EFD7D
:102CB00014E0082004002000441E40B200280DD07B
:102CC0000022002164B21748205C00F02DF8032197
:102CD00064B21448205CFFF759FDECE710BD10B555
:102CE000040064B20F48205C00F091F8002801D184
:102CF000002000E0012010BD10B50400200040B20B
:102D0000FFF7EDFF00280AD10A20FFF782FE20001E
:102D100040B2FFF7E4FF002801D1002000E00120CD
:102D200010BD0000340CFF1F70B504000D0016002C
:102D30004FF480712000C0B2FFF706FD6DB2002D88
:102D400011D1E4B26011404951F82000E4B26111A0
:102D50003D4A52F821104969012214F01F039A409C
:102D60009143416136E0E4B26011374951F82000E7
:102D7000E4B26111344A52F821104969012214F079
:102D80001F039A4011434161F6B2002E11D1E4B203
:102D900060112D4951F820000068012114F01F0234
:102DA00091408843E4B26111274A52F8211008602B
:102DB00010E0E4B26011244951F8200000680121BC
:102DC00014F01F0291400843E4B261111E4A52F808
:102DD0002110086070BD10B50400E4B260111A49FA
:102DE00051F82000406914F01F01C840C00703D407
:102DF0007B211648FFF715FDE4B26011124951F826
:102E00002000012114F01F029140C16010BD10B5D7
:102E10000400E4B260110C4951F82000406914F03C
:102E20001F01C840C00703D58C210848FFF7F9FCF3
:102E3000E4B26011044951F82000006914F01F0148
:102E4000C84010F0010010BD280BFF1FA043000078
:102E5000DFF800F01D0EFF1F40B2DFF8B41331F8A9
:102E6000201040B20128C0F2788140B2162880F2CA
:102E70007481DFF8A0230023137089B2652904DA76
:102E8000DFF89023002353707DE089B2C92904DA6A
:102E9000DFF880230123537075E089B2B1F5967F86
:102EA00004DCDFF87023022353706CE089B2B1F5C3
:102EB000C87F04DCDFF85C230323537063E089B22E
:102EC000B1F5FA7F04DCDFF84C23042353705AE099
:102ED00089B2B1F5167F04DCDFF83823052353707F
:102EE00051E089B2B1F52F7F04DCDFF828230623F7
:102EF000537048E089B2B1F5487F04DCDFF8142351
:102F0000072353703FE089B2B1F5617F04DCDFF83D
:102F100004230823537036E089B2B1F57A7F04DCCC
:102F2000DFF8F022092353702DE089B240F24D42C0
:102F3000914203DAB74A0A23537024E089B2B1F50B
:102F4000966F03DCB34A0B2353701CE089B240F246
:102F50001552914203DAAF4A0C23537013E089B241
:102F6000B1F5AF6F03DCAB4A0D2353700BE089B2B0
:102F700040F2DD52914203DAA64A0E23537002E07A
:102F8000A44A0F23537089B2332903DAA14A0023DC
:102F9000937071E089B2652903DA9E4A0123937028
:102FA0006AE089B2972903DA9A4A0223937063E0B0
:102FB00089B2C92903DA974A032393705CE089B286
:102FC000FB2903DA934A0423937055E089B2B1F5E3
:102FD000967F03DC8F4A052393704DE089B2B1F5EB
:102FE000AF7F03DC8B4A0623937045E089B2B1F5CD
:102FF000C87F03DC874A072393703DE089B2B1F5AF
:10300000E17F03DC834A0823937035E089B2B1F590
:10301000FA7F03DC7F4A092393702DE089B240F2E6
:103020002722914203DA7B4A0A23937024E089B273
:10303000B1F5167F03DC774A0B2393701CE089B24D
:1030400040F28B22914203DA724A0C23937013E010
:1030500089B2B1F52F7F03DC6E4A0D2393700BE02C
:1030600089B240F2EF22914203DA6A4A0E2393704A
:1030700002E0684A0F23937089B21A2903DA654A7D
:103080000023D37069E089B2332903DA614A01234E
:10309000D37062E089B24C2903DA5E4A0223D3700E
:1030A0005BE089B2652903DA5A4A0323D37054E0FE
:1030B00089B27E2903DA574A0423D3704DE089B2DE
:1030C000972903DA534A0523D37046E089B2B02921
:1030D00003DA504A0623D3703FE089B2C92903DAE4
:1030E0004C4A0723D37038E089B2E22903DA494A0F
:1030F0000823D37031E089B2FB2903DA454A09235A
:10310000D3702AE089B2B1F58A7F03DA414A0A23F3
:10311000D37022E089B2B1F5967F03DC3D4A0B23E0
:10312000D3701AE089B2B1F5A37F03DA394A0C23D0
:10313000D37012E089B2B1F5AF7F03DC354A0D23BD
:10314000D3700AE089B2B1F5BC7F03DA314A0E23AD
:10315000D37002E02F4A0F23D370704710B50400DC
:10316000200040B2FFF778FE2B48007810F0FD00F9
:10317000294908702848007850F010002649087046
:103180002648B821017026480078C006FBD42448A0
:103190000078C0F38100C0B20228F8D11D48C3787E
:1031A0001C4882781B4841781A480078FFF750FE87
:1031B00064B2174810EB8400807810F007001949BA
:1031C000087064B2124810EB8400C07810F01F0041
:1031D00050F0400014490870114800788006FBD573
:1031E0000F4800784006FBD50C48007810F03F00EF
:1031F0000A4908700A480078C0F38100C0B2032869
:10320000F8D164B2024830F82400C0B210BD00000A
:103210003C0BFF1F940BFF1F01400640004006407F
:1032200006400640044006400540064001B4BDF893
:103230000000002805D0BDF80000401EADF80000D9
:10324000F5E701B0704780B5012201212A20FFF780
:103250006BFD012201212B20FFF766FD23212A208F
:10326000FFF794FA23212B20FFF790FA01BD80B5D8
:103270007A48012101607A48012101604FF4C87049
:10328000FFF7D4FF774800210160774800680028E5
:1032900004D1744801210160002016E07148012129
:1032A00001606E48002101604FF4C870FFF7BEFF57
:1032B0006B48002101606C480068002804D0694810
:1032C00001210160002000E0012002BD80B56448BA
:1032D000002101606148002101604FF4C870FFF7D0
:1032E000A5FF5F48012101604FF4C870FFF79EFF02
:1032F0005A48012101604FF4C870FFF797FF01BDE4
:1033000080B55748002101604FF4C870FFF78EFF69
:103310005248002101604FF4C870FFF787FF504802
:10332000012101604FF4C870FFF780FF4C48002175
:1033300001604FF4C870FFF779FF01BD80B54848C0
:10334000002101604FF4C870FFF770FF434801216E
:1033500001604FF4C870FFF769FF41480121016027
:103360004FF4C870FFF762FF3D48002101604FF441
:10337000C870FFF75BFF01BD80B5394800210160CF
:103380003848002101604FF4C870FFF74FFF344800
:10339000012101604FF4C870FFF748FF3248006810
:1033A000002807D02F48012101602D48002101602D
:1033B000002006E02B48012101602948002101601E
:1033C000012002BD38B5050008242000441EC0B20B
:1033D000002818D0280603D520480121016002E00A
:1033E0001E48002101606D004FF4C870FFF71EFFFA
:1033F0001B48012101604FF4C870FFF717FF184800
:1034000000210160E1E731BD38B5082400251548E9
:10341000002101602000441EC0B2002815D06D00BC
:103420000F48002101604FF4C870FFF7FFFE0C4801
:10343000012101604FF4C870FFF7F8FE0A480068E8
:103440000028E7D055F00105E4E7064801210160B6
:10345000034800210160EDB2280032BD2C08FE4374
:103460002808FE43AC0AFE432C0AFE4370B5040054
:103470000D0000262900C9B2200080B200F00AF831
:10348000002805D1761CF6B2142EF3D1002000E0FE
:10349000012070BD38B504000D00FFF7E8FE0028DC
:1034A00001D1002019E04220FFF78CFFFFF764FFF5
:1034B000002803D1FFF70AFF00200EE02000C0B271
:1034C000FFF780FFFFF758FF2800C0B2FFF77AFF31
:1034D000FFF752FFFFF7FAFE012032BDF8B50400F6
:1034E0000D00160000273200D2B2290089B2200058
:1034F00000F00AF8002805D17F1CFFB21E2FF2D180
:10350000002000E00120F2BD70B504000D0016009F
:10351000FFF7ADFE002801D1002037E04220FFF781
:1035200051FFFFF729FF002803D1FFF7CFFE00204E
:103530002CE03000C0B2FFF745FFFFF71DFFFFF79B
:10354000C5FEFFF794FE002801D100201EE04320B5
:10355000FFF738FFFFF710FF002803D1FFF7B6FE93
:10356000002013E0ADB2002D0DD0FFF74DFF20700D
:10357000ADB2012D02D1FFF7E1FE01E0FFF7C0FE81
:10358000641C6D1EEEE7FFF7A1FE012070BD000078
:103590002DE9F84380460C005FEA981010F0070010
:1035A000C0B25FEA40194046103810F03F00C0B288
:1035B000C000050015EB09000700E4B217EBC400DA
:1035C000401E0600F6B2FFB2BE420DD3002200211B
:1035D0003800C0B2FFF7A8FB4FF481713800C0B2C9
:1035E000FFF7B2F87F1CEDE7BDE8F1832DE9F84F56
:1035F00004000D0016001F009DF92880DDF82C90B6
:10360000DDF830A04FFA88F8B8F1000F02D15FF072
:10361000010B11E04FFA88F8B8F1010F02D15FF009
:10362000020B09E04FFA88F8B8F1020F02D15FF0FF
:10363000040B01E05FF0100B4FFA88F8B8F1000FAF
:1036400005D16748854202D36648A84221D24FFA85
:1036500088F8B8F1010F09D16148854206D3624864
:10366000A84203D315F00300032812D14FFA88F8BB
:10367000B8F1020F09D15A48854206D35B48A842E7
:1036800003D315F00300002803D061215848FFF749
:10369000C8F8B9F5004F03D363215548FFF7C1F8C7
:1036A0005448006850F002005249086052480068CF
:1036B00050F002005049086064B260014F49455023
:1036C00064B2600100F1804010F51040066164B200
:1036D000600100F1804010F510400021818064B24B
:1036E000600100F1804010F510405FFA8BFBA0F8FC
:1036F00014B04FFA88F85FEA082010F4E0604FFA3F
:1037000088F818F00701084364B2610101F18041B3
:1037100011F51041C88064B2600100F1804010F5DD
:10372000104049464904490CC18264B2600100F16D
:10373000804010F5104049464904490CC183304887
:10374000006830F080002E49086064B2600100F12A
:10375000804010F510405FFA8BFBC0F808B064B2EF
:10376000600100F1804010F510400021C1605FEA67
:10377000CA7002D4D9F1000000E0002064B26101F7
:1037800001F1804111F51041886164B2600100F1DE
:10379000804010F510404CF20A018183FFB2780995
:1037A000313050F0800064B2164960541649380038
:1037B000C0B2FEF7C9FF5946C9B22800FFF7E8FEBC
:1037C000124800680121A140884310490860104850
:1037D00000680121A14008430D490860BDE8F18F50
:1037E00010F00F4013F10F4012F10F4010F10F4095
:1037F0001C430000408004403C8004400090004096
:103800000080004000100240000101000C800040D8
:103810002480004010B440B241097A4A012310F0DC
:103820001F04A34042F8213010BC704710B440B2CE
:103830004109754A012310F01F04A34042F82130CA
:1038400010BC704710B504007048046000F081F8A7
:103850000028FBD000F002F8002010BDE0B50120E8
:1038600002904FF4167001900020009028236748C2
:10387000026867490020FFF7B9FE66480068400803
:103880004000644908605720FFF7D0FF6248006895
:1038900050F00100604908600020FFF7BBFF5F495E
:1038A0002820FEF751FF5E491D20FEF74DFF07BDA2
:1038B00080B55C4890F90000042818D159480321CC
:1038C00001705720FFF7B2FF57484FF48071016035
:1038D0005048006850F001004E49086052484FF4CB
:1038E00080710160514849490968016005E057202D
:1038F000FFF79CFF4B480221017001BD494801219F
:1039000001704548006850F0010043490860704765
:1039100080B544480421017043485FF0FF310160E5
:103920005720FFF777FF3F4890F9000001280FD09C
:103930003C4890F900000228F5D13A480421017072
:1039400039485FF0FF3101605720FFF763FFEAE776
:1039500001BD10B582B0002400208DF80000FFF7F3
:1039600072FC80211220FFF781FD002804D130482D
:10397000FFF722F8002043E03220FFF74AF80B223D
:10398000012100A8FFF7AAFD002804D12948FFF76C
:1039900013F8002034E09DF800102748FFF70CF8DA
:1039A000264801782648FFF707F89DF800002128EF
:1039B00025D10020040021480078A4B280B28442BE
:1039C00018D2A4B21F4810EB44004178A4B21D489D
:1039D00010F8140080B2FFF749FD002808D1A4B206
:1039E000184810F814101848FEF7E6FF002007E00A
:1039F000641CE0E71548FEF7DFFF012000E000202F
:103A000016BD000000E100E080E100E07C0EFF1F39
:103A100050F00F400C800040248000400201020062
:103A200012010900C80BFF1FA09004401090004035
:103A300004450000A44500006C440000300CFF1F4A
:103A4000E4440000CC0BFF1F1C4500009044000024
:103A5000DFF800F023280000DFF800F0132A000050
:103A60005448F0210170534800780006FBD55148B6
:103A700000787121084201D0002000E00120704749
:103A800080B54D48006850F400204B490860494813
:103A900000780006FBD54748F02101700A20FFF7A7
:103AA000DBFF01BD10B582B00400A4B24FF480501A
:103AB00000FB04F000904148092101709DF80200CC
:103AC0003F4908709DF801003E4908703E489DF846
:103AD00000100170FFF7C4FF002801D100200EE0A4
:103AE000A4B2002C0AD15FF0FF327FF001034FF443
:103AF0008161200080B200F003F800E0012016BDD3
:103B0000F0B583B006000F0014001D00B6B24FF4EC
:103B10008050BFB200FB06700190BFB2082097FB37
:103B2000F0F101FB1071002903D0EA212748FFF7CB
:103B30008FFFBFB2B7F5805F03DDEC212348FFF7AD
:103B400087FF9DF806001E4908709DF805001D4975
:103B500008701D489DF80410017000949DF8030042
:103B60001B4908709DF802001A4908709DF8010071
:103B70001949087019489DF8001001700F48072175
:103B8000017000959DF80300154908709DF802002A
:103B9000144908709DF801001349087013489DF8F6
:103BA00000100170FFF75CFF002801D1002000E049
:103BB0000120FEBD0000024004F001400700024069
:103BC0000600024005000240040002404843000095
:103BD0000B0002400A0002400900024008000240B7
:103BE0000F0002400E0002400D0002400C00024097
:103BF000F0B4114E366834000F4E366856F47F0626
:103C00000D4F3E600E0616F0706656EA00761705F8
:103C100017F470073E431F0417F470273E43074F05
:103C20003E6000263500EDB29D4201D26D1CFAE7E0
:103C3000014E3460F0BC704700F001404480044005
:103C400080B500F095F800F02AF800F00AF8FEF7C9
:103C500005FE012201210420FFF766F800F0A8F814
:103C6000FEE780B50C20FFF779FA33490860324847
:103C700000684FF47A714843304908602F48006863
:103C80002F490968C1F30361491CB0FBF1F02D49CC
:103C900008605FF4E1310420FEF7D2FE01BD2DE99A
:103CA000F8432948294988420DD000208046B8F5BC
:103CB000826F08D22448254951F8281040F828106E
:103CC00018F10108F3E7204800F0B0F82048070099
:103CD0002048060020480400A01B80464046B0F162
:103CE0000108002804D030783870761C7F1CF5E776
:103CF0001A4881461A480500B5EB0900804640463F
:103D0000B0F10108002805D0002089F8000019F161
:103D10000109F4E713481449144A531A98464346D4
:103D2000B3F10108002B04D00B780370491C401C30
:103D3000F5E7BDE8F18300009C23FF1F9823FF1FD8
:103D400044800440A023FF1F0000FF1F000000006C
:103D50001004FF1F44190000B02100006C0EFF1F6B
:103D6000F423FF1F7C0CFF1F503A0000403C000072
:103D700080B500F008F80C4800884FF6FE71084046
:103D80000949088001BDEFF3118072B607494CF272
:103D900020520A8005494DF628120A80C0B2002838
:103DA00000D162B670470000002005400E2005409B
:103DB00080B51848FFF746FD0FF22D01672000F08F
:103DC00046F80FF26101102000F041F800F056F8BB
:103DD000FFF79EFD4FF416720E490F4800F0BEF833
:103DE0000E4800F07EF8FEE738B50D480068002860
:103DF000FBD00B480068050009485FF0FF31016007
:103E00001D20040035FA04F0C00701D5FFF750FD6E
:103E100031BD0000800EFF1FD810FF1F000080BFC3
:103E2000A090044080B5FFF769FD01BD10B5040006
:103E30004FF4007094FBF0F101FB1041002903D016
:103E40001E210B48FEF7EDFC0A48046010BD38B592
:103E500004000D00074800680749884203D030215C
:103E60000348FEF7DEFC64B2034840F8245031BD3D
:103E7000F843000008ED00E00000FF1F80B50023BC
:103E800042F2107202210020FEF768FA002342F28B
:103E9000107203210020FEF761FA002342F2107233
:103EA00004210020FEF75AFA002342F21072052185
:103EB0000020FEF753FA0120FEF7B7FB0220FEF7C1
:103EC000B4FB6423642204210320FEF747FA002098
:103ED00000F007F80020FEF7D9FE0120FEF7D6FE1D
:103EE00001BD10B504002000184900F081F803D886
:103EF0005FF07E50040006E02000154900F08AF8CB
:103F000001D2134804002000002100F083F80ED2F3
:103F10001048210000F090F80F4900F0F9F800F087
:103F200039F9020004210320FEF7EFFA0DE00948F9
:103F3000210000F081F8084900F0EAF800F02AF9C1
:103F4000020004210320FEF7E0FA10BD0100803FCB
:103F5000000080BF000002430040AB44F8B4234B94
:103F60001B88ADF8003005000C001600721E002EF4
:103F70003AD026783300641CDBB2DE1100AFF65D68
:103F80002E706D1CC3F38016F6B200AFF65D2E7076
:103F90006D1CC3F34016F6B200AFF65D2E706D1CBB
:103FA000C3F30016F6B200AFF65D2E706D1CC3F3BE
:103FB000C006F6B200AFF65D2E706D1CC3F380062E
:103FC000F6B200AFF65D2E706D1CC3F34006F6B27C
:103FD00000AFF65D2E706D1CDBB213F0010600AF72
:103FE000F65D2E706D1CC0E7F1BC7047CE0F00006F
:103FF0004FF0807C1CEB400F94BF1CEB410F05E0A1
:1040000040EA010C5FEA4C0C01D28142704718BFB4
:10401000884270474FF0807C1CEB400F94BF1CEB34
:10402000410F05E040EA010C5FEA4C0C01D28842E6
:10403000704718BF81427047FF2212EAD05C1DBF53
:1040400012EAD153944593422BE09C44D30780EA73
:1040500001021A4043EA002043EA0121A1FB00309B
:10406000410038BF40007CF17F010BDBFE294ADABA
:104070005B0842EAC15153EA006373F1004C51EB13
:1040800010207047D1F1080CDCF120012FDB5B0818
:1040900010FA01F10B4373F1004120FA0CF050418A
:1040A000704794451CBF02EAD153934280EA010253
:1040B00002F000421DD0400019D0490017D05BB972
:1040C000634514D00902B1FA81F39940BCEB030CAB
:1040D000C00140F00040C1E70002B0FA80FC10FAD5
:1040E0000CF0B3EB0C0CC90141F00041B6E7100035
:1040F000704740000AD0490008D010F1807F94BF7B
:1041000011F1807F02E042F0FF407047D0437047DA
:1041100090EA010F44BF81F0004100F05DB800BF9C
:10412000421A3CBF801A89184FF0004CC0F3C752A6
:10413000FF2A24D0C1F3C75313B3D21AD2F1190303
:1041400027DD4CEA01214CFA03F321EA0303D140B5
:10415000C20D4CEA0020401834BF20EA0C004CEAA3
:104160005000D20553EA006373EB0C0C52EB1020A5
:10417000420012F1807F38BF7047C00DC005704704
:10418000490212BF9A4200EB5120F8E7D2F117031F
:10419000D9D570474100090E7F3915D4D1F11F01DF
:1041A00014D4400007D2C00140F00040C84048BFCE
:1041B0006FF000407047C00140F00040C8404CBF65
:1041C0004FF00040404270470020704700424FF0DF
:1041D000004058BFC0437047431A4FF000423EBFF3
:1041E0005340C01AC91800BFD3095FEAD05C13EB73
:1041F000400F34BFB3EB410F40E07CEBD1530CD305
:1042000042EA012122D8D1EB402009D3400A28BF3D
:104210005FEA500140EBCC507047401A15D0400285
:10422000B0FA80F2521C9040400A4FEA3C23B3EBB4
:10423000026384BF00EB730007E040F400001A162D
:10424000DB07C2F10102D04018437047182BFCDC99
:1042500031FA03F202FA03F3591A38BF42F00102AD
:10426000D2EB40203CBF4000ACF1010C5FEACC5CDB
:10427000C20572F100414CEB5020704713EB400F28
:104280000FD24B0009D0ACEBD153022B03DB490218
:10429000172BDDDD70479143401A4300D5D1002034
:1042A000704713EB410FD0D36FF000007047000050
:1042B0000A2A2A2A2A64656661756C745F697372BA
:1042C00020656E7465726564206F6E207665637418
:1042D0006F722025642A2A2A2A2A0A0A257320496D
:1042E0006E7465727275707400000000463A5C531B
:1042F0006D6172744361725C666F725F7465737432
:104300005C436869705C7372635C4D4B36305F531D
:1043100079735469636B2E6300000000463A5C5366
:104320006D6172744361725C666F725F7465737401
:104330005C436869705C7372635C4D4B36305F64DC
:104340006D612E6300000000463A5C536D6172742B
:104350004361725C666F725F746573745C43686915
:10436000705C7372635C4D4B36305F666C61736872
:104370002E630000463A5C536D6172744361725C57
:10438000666F725F746573745C436869705C7372A6
:10439000635C4D4B36305F66746D2E630000000029
:1043A000463A5C536D6172744361725C666F725F12
:1043B000746573745C436869705C7372635C4D4BC5
:1043C00036305F6770696F2E63000000463A5C53B9
:1043D0006D6172744361725C666F725F7465737451
:1043E0005C436869705C7372635C4D4B36305F751B
:1043F0006172742E63000000463A5C536D61727402
:104400004361725C666F725F746573745C43686964
:10441000705C7372635C6D6973632E6300000000EF
:1044200010B5074979441831064C7C44163404E031
:104430000A68081D511888470146A142F8D110BDED
:104440007400000080000000417373657274696F2E
:104450006E206661696C656420696E202573206139
:1044600074206C696E652025640A00000A47657433
:104470002049442073756363657373A3AC53454E41
:10448000534F52204944206973203078257800002A
:104490000A4F563737323520526567697374657233
:1044A00020436F6E6669672053756363657373217C
:1044B00000000000E3CAFFFF881500006C0EFF1F1C
:1044C000000000000ABDF8D0D0BDE2CBF8B2D9D7C9
:1044D000F7A3ACC7EBD6D8D0C2CBA2C8EBB9CCBC43
:1044E000FE0000000A436F6E6669672052656769C7
:1044F00073746572204E756D626572206973202534
:10450000642000000ABEAFB8E63A53434342D0B439
:10451000CAFDBEDDB4EDCEF3000000000ABEAFB8A8
:10452000E63AD0B4BCC4B4E6C6F730782578CAA75A
:10453000B0DC000000F009F8002801D0FFF770FFA0
:104540000020FFF735FC00F002F80120704700F072
:1045500001B800000746384600F002F8FBE700000B
:1045600001491820ABBEFBE72600020038B504461F
:104570000D46284600F006F8A84218BF0024204641
:1045800032BD00000149FEF75FB900BF3C0CFF1FC0
:104590000ABDF8C8EBCBC0D1ADBBB7B5C8B4FDA35D
:1045A000A10000000ABEAFB8E63AB6C1C8A14944AE
:1045B000CAA7B0DC00000000C046C046C046C046E6
:1045C000FFF7B8FF0000000000000000000000003E
:1045D00000000000000000000000000000000000DB
:1045E000FFFFFFFFFFFFFFFF0000000000000000D3
:1045F00000000000000000000000000000000000BB
:10460000000000000000000000000000FFFFFFFFAE
:10461000FFFF00000000000000000000000000009C
:10462000000000000000000000000000000000008A
:10463000000000000000000000000000000000007A
:0C4640000000000000000000000000006E
:04000005000045B9F9
:00000001FF
